S00C00006578616D2E737265636D
S11300000060002099080000E5080000E9080000ED
S113001000000000000000000000000000000000DC
S1130020000000000000000000000000ED080000D7
S11300300000000000000000F1080000F5080000C6
S1130040F9080000FD08000001090000050900008E
S1130050E1080000E1080000E1080000E1080000F8
S1130060090900000D09000011090000150900002C
S1130070190900001D09000021090000E108000021
S1130080E1080000E1080000E1080000E1080000C8
S1130090E1080000E1080000E10800002509000073
S11300A0E1080000E1080000E1080000E1080000A8
S11300B0E1080000E1080000E10800004D0700002D
S1130400FFFFFFFFFFFFFFFFFFFFFFFFFEFFFFFFF9
S11304100448054B10B5834203D0044B002B00D095
S1130420984710BD38E4FF1F38E4FF1F00000000A8
S113043006480749091A8B10C90FC91810B5491085
S113044003D0044B002B00D0984710BD38E4FF1FA5
S113045038E4FF1F0000000010B5074C2378002B80
S113046009D1FFF7D5FF054B002B02D0044800E06B
S113047000BF0123237010BD38E4FF1F00000000FB
S113048030530000054B10B5002B03D00449054838
S113049000E000BFFFF7CCFF10BDC0460000000025
S11304A03CE4FF1F30530000402292029A1A924605
S11304B07047C046154B002B00D1114B9D46FFF7EA
S11304C0F3FF00218B460F461148124A121A04F01A
S11304D003FA0C4B002B00D098470B4B002B00D099
S11304E098470020002104000D000B4804F0A6F9F1
S11304F004F0D0F92000290000F0A2F904F0A6F9D4
S1130500000008000000000000000000006000205F
S113051038E4FF1F7CE4FF1F6D48000080B582B003
S113052000AF0200FB1D1A70FB1D1B787F2B09D83E
S1130530FB1D1B781A001F231A40044B0121914014
S11305400A001A60C046BD4602B080BD00E100E06A
S113055090B583B000AF02003960FB1D1A70FB1D1B
S11305601B787F2B28D82F4AFB1D1B785BB29B0876
S1130570C0339B009B58FA1D1278110003220A40D5
S1130580D200FF2191400A00D2431A4011003B6877
S11305909B01FF221A40FB1D1B7818000323034014
S11305A0DB009A401F48FB1D1B785BB29B080A4383
S11305B0C0339B001A5031E01B4AFB1D1B78190005
S11305C00F230B40083B9B0806339B00D3180433CE
S11305D01B68FA1D1278110003220A40D200FF2181
S11305E091400A00D2431A4011003B689B01FF224C
S11305F01A40FB1D1B78180003230340DB009A40BC
S11306000948FB1D1B781C000F232340083B9B0853
S11306100A4306339B00C31804331A60C046BD4620
S113062003B090BD00E100E000ED00E080B500AF54
S11306300C4A0D4BD3580B498022520113430A4AEA
S11306408B500A4B802252005A61094B5A69084B5D
S113065020210A435A61064B20225A60C046BD46F7
S113066080BDC046007004403810000000C0044043
S1130670C0F00F4080B500AF0D4A0E4BD3580C4963
S11306808022920113430B4A8B500B4B8022520061
S11306905A670A4B5A69094B802189050A435A61F2
S11306A0064B802292055A60C046BD4680BDC046B6
S11306B0007004403810000000D0044000F10F40E6
S11306C080B500AF0A4A0B4BD35809498022120166
S11306D01343084A8B50084B084ADA60084B5A699E
S11306E0074B08218A435A61C046BD4680BDC046B7
S11306F0007004403810000000B0044003010A00F8
S113070080F00F4080B500AF0A4A0B4BD35809491B
S1130710802212011343084A8B50084B084A1A637B
S1130720084B5A69074B08490A405A61C046BD46FE
S113073080BDC046007004403810000000B0044082
S113074003010A0080F00F40FFEFFFFF80B500AF08
S11307501B4AA023D3580822134012D0184AA023BE
S1130760D358174908221343A0228B50154B1B68FA
S1130770012B03D1134B00221A6002E0114B01221A
S11307801A600F4AA023D25880235B01134013D070
S11307900B4AA023D3580A49802252011343A022B2
S11307A08B50094B1B68012B03D1074B00221A60A5
S11307B002E0054B01221A60C046BD4680BDC0461A
S11307C000B0044054E4FF1F58E4FF1F80B582B01A
S11307D000AF174B1A68174B1B68D3187B607B68F4
S11307E0022B09D07B68022B1EDC7B68002B13D004
S11307F07B68012B08D017E00F4B20229A600F4B27
S1130800802292055A600FE00B4B20225A600B4B5A
S1130810802292059A6007E0074B20225A60074B1A
S1130820802292059A60C046C046BD4602B080BD93
S113083054E4FF1F58E4FF1FC0F00F4000F10F40C5
S113084080B500AF114A88235B01D3580F490C22AD
S113085093431A0088235B01CA501F20FFF75EFEF2
S113086000211F20FFF774FEFFF7E0FEFFF702FFF1
S1130870FFF726FFFFF746FF054B01221A60054BE1
S113088001221A60FFF7A2FFFCE7C0460070044093
S113089054E4FF1F58E4FF1F72B60A480A49016076
S11308A00A6882F30888094880470949094A0A4BBB
S11308B09B1A03DD043BC858D050FBDC62B60748E2
S11308C08047000008ED00E000000000710900000E
S11308D05C53000000E0FF1F38E4FF1FB504000074
S11308E01148004711480047114800471148004784
S11308F01148004711480047114800471148004774
S11309001148004711480047114800471148004763
S11309101148004711480047114800471148004753
S11309201148004711480047E1080000E5080000AD
S1130930E9080000ED080000F1080000F5080000D7
S1130940E1080000E1080000E1080000E1080000FF
S1130950E1080000E1080000E1080000E1080000EF
S11309603B200000B3330000E7330000E10800003F
S113097080B500AF044A88235B010021D15000F008
S11309802BF9C046BD4680BD0070044080B582B0DE
S113099000AF894B1B78DBB21A00C023134000D090
S11309A0C3E0854B5B79DBB21A004023134000D0CF
S11309B099E0814B1B78DBB21A00042313403AD12F
S11309C07E4B7B607C4B5B78DBB21A003023134098
S11309D01ED0794B1B78DBB21A0038231340302B1E
S11309E006D0382B09D1BB1CC022D2001A8019E0D2
S11309F0BB1CA022D2001A8014E06F4B1B78DBB220
S1130A00DB080722134020229A40BB1C1A8009E00D
S1130A10694B1B78DBB2DB080722134001229A40A2
S1130A20BB1C1A80BB1C1B881900786803F090FD5E
S1130A3003007B6002E080231B027B605E4BDB785B
S1130A40DBB21A00E0231340E02B47D000D99DE02D
S1130A50C02B3ED000D999E0A02B34D000D995E02A
S1130A60802B2AD000D991E0602B1FD000D98DE0D3
S1130A70402B14D000D989E0002B02D0202B07D0C2
S1130A8084E07A6813009B009B18DB017B607EE0A6
S1130A907A6813009B009B181B027B6077E07A68DE
S1130AA013001B019B1ADB017B6070E07A68130062
S1130AB09B009B185B027B6069E07B68B722920015
S1130AC053437B6063E07B68B722D20053437B606F
S1130AD05DE07B683A4A53437B6058E07B68394A5F
S1130AE053437B6053E0344B1B79DBB29BB21F2230
S1130AF013409AB2BB1C01321A80BB1C1B8819001C
S1130B002E4803F025FD03007B602B4B5B79DBB2A1
S1130B109BB21F2213409AB2BB1C18321A80BB1C12
S1130B201A887B6853437B6031E0234B1B78DBB22C
S1130B301A00C0231340402B1DD11F4B5B78DBB23E
S1130B401A000123134003D180231B027B601EE0A3
S1130B50194B1B7ADBB25B080722134001229A402F
S1130B60BB1C1A80BB1C1B881900174803F0F0FC3F
S1130B7003007B600BE0104B1B78DBB21A00C02330
S1130B801340802B13D10D4B7B6000E0C0460F4A0D
S1130B900F4BD3581B0F0F221340013319007868F1
S1130BA003F0D6FC03001A000A4B1A6000E0C046AA
S1130BB0BD4602B080BDC0460040064000127A0027
S1130BC095080000710B000000093D00007004400E
S1130BD04410000000E0FF1F80B500AFC046BD46D2
S1130BE080BDC04680B582B000AF0200FB1D1A7004
S1130BF0FB1D1B787F2B09D8FB1D1B781A001F23B4
S1130C001A40044B012191400A001A60C046BD46B7
S1130C1002B080BD00E100E080B584B000AF786030
S1130C207B681B0C084A94466344FB60FB681968A4
S1130C307B681B041B0C01229A40FB680A431A6060
S1130C40C046BD4604B080BD0070044080B584B089
S1130C5000AF78607B681B0C094A94466344FB60D0
S1130C60FB681A687B681B041B0C012199400B006C
S1130C70D943FB680A401A60C046BD4604B080BD33
S1130C800070044080B582B000AF0200FB1D1A70F2
S1130C90FB1D1B785BB2803301D1012306E0FB1DF1
S1130CA01B785BB21800FFF79DFF00231800BD46B8
S1130CB002B080BD80B584B000AF78600023FB60D3
S1130CC006E00D4A7B68934206D0FB680133FB6063
S1130CD0FB68002BF5D000E0C046FB68002B05D074
S1130CE0064B074A0748892102F098FBFB68180065
S1130CF0BD4604B080BDC04600A006406C4B000059
S1130D001C4C0000904B000080B584B000AF7860AC
S1130D107B68002B05D1144B144A1548902102F02E
S1130D207DFB7B685B8C9AB27B681B8C9BB29A427E
S1130D300CD97B681B8C9BB21A007B68DB69D318C7
S1130D407A68528C92B29B1AFB6008E07B681B8C19
S1130D509BB21A007B685B8C9BB2D31AFB60FB6866
S1130D601800BD4604B080BDA44B0000304C000008
S1130D70904B000080B584B000AF78607B68002B96
S1130D8005D1104B104A1148A22102F047FB7B68A1
S1130D901800FFF7B9FF02007B68DB69013B9A4248
S1130DA004D10F23FB1801221A7003E00F23FB1850
S1130DB000221A700F23FB181B781800BD4604B0DC
S1130DC080BDC046A44B0000544C0000904B000072
S1130DD080B586B000AFF860B9607A60BB68002B5C
S1130DE005D10E4B0E4A0F48B42102F017FB002325
S1130DF07B6109E0BA687B69D318FA68D279D2B208
S1130E001A707B6901337B617A697B689A42F1D3FA
S1130E10C046C046BD4606B080BDC046AC4B0000CF
S1130E20784C0000904B000080B586B000AFF860AD
S1130E30B9607A60BB68002B05D10D4B0D4A0E4892
S1130E40C22102F0EBFA00237B6108E0BA687B69F7
S1130E50D3181A78FB68DA717B6901337B617A698C
S1130E607B689A42F2D3C046C046BD4606B080BDF8
S1130E70AC4B0000904C0000904B0000B0B58CB01F
S1130E8000AFF860B9607A60BB68002B05D1954B60
S1130E90954A9648D02102F0C1FABB681B68002B22
S1130EA005D1934B904A9148D12102F0B7FA2C23F3
S1130EB0FB1800221A8000237B62BB681B68BB619D
S1130EC004233B625AE0BB681B683A6A5343190027
S1130ED0786803F03DFB03001A002A217B181A806E
S1130EE00A00BB181B88002B02D1BB1801221A80F0
S1130EF02A257B191B883A6A53431900786803F042
S1130F0027FB03007B61BB681B687A69D31AFB610A
S1130F10BB681C687B191B8801331A003B6A534366
S1130F201900786803F014FB0300E31AFA699A4283
S1130F3013D9BB681C687B191B8801331A003B6AF0
S1130F4053431900786803F003FB0300E31AFB61C1
S1130F507B191A887B1901321A80FA69BB699A4293
S1130F6009D8FB69BB613B6A7B622C23FB182A22EC
S1130F70BA1812881A803B6A01333B623B6A202B01
S1130F80A1D9BB681B686421180003F0E1FA0300CF
S1130F901A0013005B009B18BA699A4201D9554B99
S1130FA09CE0FB681800FFF785FE534B1800FFF721
S1130FB033FEFB68DB78DBB20C229343DAB2FB68C6
S1130FC0DA707B6A032B0AD97B6A072B07D8FB6884
S1130FD0DB7ADBB202221343DAB2FB68DA72FB6813
S1130FE09B7ADBB21F229343DAB27B6ADBB2013B0A
S1130FF0DBB21343DAB2FB689A72FB689B7ADBB20A
S11310001F229343DAB22C217B181B881B0A9BB244
S1131010DBB21343DAB2FB681A707B181B88DAB2AE
S1131020FB685A70FB689B78DAB22F203B181721B3
S11310308A431A70BB689B799B00DBB2042213407D
S1131040D9B23B183A1812780A431A70BB681B7954
S1131050002B09D0BB681A793B181B781343DAB20A
S11310603B1810210A431A70FB682F203A18127893
S11310709A70FB681B78DBB220229343DAB2FB68D8
S11310801A70FB681B78DAB2BB685B795B01DBB270
S113109020210B40DBB21343DAB2FB681A703B1811
S11310A0FA68D2781A70BB68DB79002B05D03B183C
S11310B03A18127808210A431A70BB681B7A002B6D
S11310C006D02F22BB18BA18127804210A431A70CA
S11310D0FB682F22BA181278DA7000231800BD4674
S11310E00CB0B0BDB44B0000A84C0000904B000005
S11310F0BC4B0000B50400000A00341080B582B077
S113110000AF7860C0467B681B79DBB21A004023CD
S11311101340F8D07B681800FFF7CCFD034B180090
S1131120FFF794FDC046BD4602B080BD0A003410EE
S113113080B582B000AF78607B68002B06D10F4B7E
S11311400F4AA82149000F4802F068F97B68E122A0
S113115052021A607B6800221A717B6800225A715D
S11311607B6800229A717B680022DA717B68002216
S11311701A72C046BD4602B080BDC046B44B0000E2
S1131180B44C0000904B0000B0B58CB000AFF860D8
S1131190B9607A60BB68002B06D1654B654AAE2105
S11311A04900654802F03AF90023BB6200237B62E0
S11311B0BB68BB612323FB1804221A705FE023235E
S11311C0FB181B78BA6853431900786803F0C0F918
S11311D003001A002E217B181A800A00BB181B88F2
S11311E0002B02D1BB1801221A8023257B191B78FE
S11311F02E243A19128853431900786803F0A8F989
S113120003003B613A69BB68D31AFB617B191B7805
S11312103A191288013253431900786803F098F997
S113122003001A00BB689B1AFA699A4213D97B1906
S11312301B783A191288013253431900786803F075
S113124087F903001A00BB689B1AFB613B191A88D3
S11312503B1901321A80FA69BB699A4209D8FB69C1
S1131260BB612323FB181B78BB622E23FB181B884E
S11312707B6223217B181A787B1801321A7023238E
S1131280FB181B78202B9AD9BB686421180003F043
S11312905FF903001A0013005B009B18BA699A42B5
S11312A040D21723FB18FA68D2781A70FB68DB78EF
S11312B0DBB20C229343DAB2FB68DA70BB6A032B0D
S11312C00AD9BB6A072B07D8FB68DB7ADBB2022298
S11312D01343DAB2FB68DA72FB689B7ADBB21F2233
S11312E09343DAB2BB6ADBB2013BDBB21343DAB23B
S11312F0FB689A72FB689B7ADBB21F229343DAB2D3
S11313007B6A1B0ADBB21343DAB2FB681A707B6A8E
S1131310DAB2FB685A70FB681722BA181278DA70CE
S1131320002300E0054B1800BD460CB0B0BDC0461C
S1131330D44B0000CC4C0000904B0000B5040000DE
S113134080B582B000AF786039603B68114A1340C1
S11313503B607B681B78DAB23B68DBB21343DAB2DA
S11313607B681A707B68DB78DAB23B681B0ADBB2F5
S11313701343DAB27B68DA707B689B79DAB23B6834
S11313801B0CDBB21343DAB27B689A71C046BD46CC
S113139002B080BDC0F00F0080B582B000AF7860AD
S11313A039603B68144A13403B607B681B78DBB2AE
S11313B03A68D2B2D243D2B21340DAB27B681A701E
S11313C07B68DB78DBB23A68120AD2B2D243D2B27B
S11313D01340DAB27B68DA707B689B79DBB23A68D7
S11313E0120CD2B2D243D2B21340DAB27B689A71F1
S11313F0C046BD4602B080BDC0F00F0080B584B0C9
S113140000AF78607B681B78DBB21A007B68DB78FE
S1131410DBB21B021A437B689B79DBB21B041343C8
S1131420FB60FB68024A13401800BD4604B080BD4F
S1131430C0F00F0080B584B000AF78607B681B7982
S1131440DBB21A007B685B79DBB21B021343FB60DF
S1131450FB681800BD4604B080BD80B584B000AF01
S1131460786039600B217B1800221A707B181B7876
S1131470DBB20133DAB27B181A703A6880231B029C
S1131480134006D07B6880225A713B68154A13408A
S11314903B603A688023DB01134006D07B6840221E
S11314A05A713B68104A13403B603B681F2213404B
S11314B00AD03B68DBB21F221340DAB27B681A7190
S11314C03B681F2293433B603B68002B02D0074BD1
S11314D0FB6001E00023FB60FB681800BD4604B01C
S11314E080BDC046FF7FFFFFFFBFFFFFB4040000C5
S11314F080B584B000AFF860B9607A60BB68002B37
S113150012D10E4B0E4A0F490F4801F087FFC04617
S1131510FB681B79DBB25BB2002BF9DABB685A1C9F
S1131520BA601A78FB68DA717B685A1E7A60002BFD
S1131530EDD1C046C046BD4604B080BDAC4B0000F2
S1131540E04C000005020000904B000080B586B01E
S113155000AFF860B9607A60BB68002B47D1294BB3
S1131560294A85218900294801F058FFFB681800A1
S1131570FFF760FF03007B617B690822134007D0FB
S1131580FB6808211800FFF768FF9723DB0034E0AD
S11315907B690422134006D0FB6804211800FFF77E
S11315A05CFF1B4B29E07B690222134006D0FB68D9
S11315B002211800FFF751FF164B1EE07B69012240
S11315C0134006D0FB6801211800FFF746FF124BB9
S11315D013E0FB681B79DBB21A0020231340C5D04B
S11315E0BB685A1CBA60FA68D279D2B21A707B68A6
S11315F05A1E7A60002BECD100231800BD4606B0B9
S113160080BDC046AC4B0000F44C0000904B000081
S1131610B9040000BA040000BB04000080B586B021
S113162000AFF860B9607A603B60BB68002B05D1FD
S1131630174B184A1849194801F0F0FEBB683022CC
S11316400021180003F048F9BB682D2202219954A7
S1131650BB682C2200219954BB687A685A62BB6823
S11316603A689A62FB681800FFF724FB03007B6169
S11316700B4B7A699200B968D1500A4B0A4A1A6036
S11316800C231800FFF7FEFAC046BD4606B080BD25
S1131690A44B0000084D000041020000904B0000E4
S11316A05CE4FF1F60E4FF1F391C000080B584B0B8
S11316B000AFF860B9607A603B60BB68002B05D16D
S11316C01A4B1B4A1B491C4801F0A8FE7B68002BDF
S11316D005D11A4B164A1A49174801F09FFEBB68F8
S11316E07A689A61BB683A68DA61BB6800221A8436
S11316F0BB6800225A84A2231A03FB681100180055
S1131700FFF71EFEFB689B78DBB202221340DBB2BC
S1131710002B06D080235A02FB6811001800FFF743
S11317200FFEC046BD4604B080BDC046A44B0000B9
S1131730244D00005E020000904B0000E44B0000CA
S11317405F02000080B582B000AF786039603B680A
S1131750002B05D1184B194A19491A4801F05EFEAD
S11317603B682D229B5CDBB2022B15D1A2231A030A
S11317707B6811001800FFF70FFE7B689B78DBB2D3
S113178002221340DBB2002B06D080235A027B686E
S113179011001800FFF700FE3B6800229A613B68C5
S11317A00022DA613B6800221A843B6800225A84D2
S11317B0C046BD4602B080BDA44B0000444D0000AD
S11317C073020000904B000080B586B000AFF86053
S11317D0B9607A60BB68002B05D1264B264A27499D
S11317E0274801F01BFE7B68002B05D1254B224ABC
S11317F02549234801F012FE7B685B68002B05D164
S1131800224B1D4A22491E4801F008FE7B681B68D2
S1131810002B06D11F4B184AA3218900184801F058
S1131820FDFDBB682C229B5CDBB2012B03D196230C
S1131830DB007B6118E07B681A68BB681A607B6810
S11318405A68BB685A607B685A68BB689A60BB6810
S11318502C220121995480231A02FB6811001800DC
S1131860FFF76EFD00237B617B691800BD4606B05F
S113187080BDC046A44B0000644D000089020000F6
S1131880904B0000F04B00008A020000F84B00006F
S11318908B020000084C000080B582B000AF786075
S11318A039603B68002B05D10B4B0C4A0C490D48A1
S11318B001F0B4FDC0231A027B6811001800FFF781
S11318C06BFD3B6800225A603B682C22002199542E
S11318D0C046BD4602B080BDA44B0000844D00004C
S11318E0A7020000904B000080B584B000AFF86000
S11318F0B9607A60BB68002B05D1114B114A1249BB
S1131900124801F08BFD7B68002B05D1104B0D4A6A
S113191010490E4801F082FDBB682C229B5CDBB2AF
S1131920002B01D1062307E0BB689A68BB685B689B
S1131930D21A7B681A6000231800BD4604B080BD2B
S1131940A44B00009C4D0000B1020000904B00002D
S1131950144C0000B202000090B58BB000AFF860E8
S1131960B9607A603B60BB68002B05D16D4B6E4A51
S11319706E496F4801F052FD7B68002B06D16D4B18
S1131980694AB12189006A4801F048FD7B685B68B7
S1131990002B05D1684B644A6849654801F03EFD57
S11319A07B681B68002B05D1654B5F4A654960481D
S11319B001F034FD00237B61BB682D229B5CDBB20C
S11319C0032B02D1604B3B62A6E07B685B68FB6142
S11319D00023BB61BB689B69002B00D16EE08023B0
S11319E09A01FB6811001800FFF7D6FCBB681800C9
S11319F0FFF78AF903007B617B69002B34D0FA6915
S1131A007B69934200D913007B61FA697B69D31A1D
S1131A10FB6100237B6223E0BB689B69BA68528C3C
S1131A2092B29A187B681968BB69581CB861CB18C4
S1131A3012781A70BB685B8C9BB25A1CBB68DB695A
S1131A409A4203D1BB6800225A8406E0BB685B8CCF
S1131A509BB201339AB2BB685A847B6A01337B62BE
S1131A607A6A7B699A42D7D3FB69002B0FD07B68D3
S1131A701A68BB69D218BB68DA60BB68FA691A6174
S1131A80BB68FA695A61BB682D22032199548023EB
S1131A909A01FB6811001800FFF752FCFB69002B48
S1131AA032D1BB685B6A002B2ED0BB685C6ABB6812
S1131AB09B6A264AB968F868A04725E07B681A68DB
S1131AC0BB69D218BB68DA60BB68FA691A61BB6883
S1131AD0FA695A61BB682D2203219954A3231A037E
S1131AE0FB6811001800FFF72BFCFB689B78DBB246
S1131AF002221340DBB2002B06D080235A02FB687B
S1131B0011001800FFF71CFC3B68002B02D03B6857
S1131B10BA691A6000233B623B6A1800BD460BB0E9
S1131B2090BDC046A44B0000B84D0000C3020000A5
S1131B30904B0000F04B0000F84B0000C502000081
S1131B40084C0000C6020000B1040000B304000009
S1131B5080B582B000AF786039603B68002B05D156
S1131B60154B164A1649174801F058FC3B689B6907
S1131B70002B15D1A3231A037B6811001800FFF76B
S1131B800BFC7B689B78DBB202221340DBB2002B98
S1131B9006D080235A027B6811001800FFF7FCFB73
S1131BA03B6800221A613B682D2202219954C046E9
S1131BB0BD4602B080BDC046A44B0000DC4D000011
S1131BC03A030000904B000080B584B000AFF86089
S1131BD0B9607A60BB68002B05D1124B124A1349D5
S1131BE0134801F01BFC7B68002B06D1114B0E4AF5
S1131BF0D42189000E4801F011FCBB682D229B5CA6
S1131C00DBB2022B01D1062307E0BB685A69BB682B
S1131C101B69D21A7B681A6000231800BD4604B001
S1131C2080BDC046A44B0000F84D00004F030000E7
S1131C30904B0000144C000090B585B000AF786064
S1131C4039603B68002B05D1C74BC84AC849C9480D
S1131C5001F0E4FB7B681B79DBB201221340DBB2A9
S1131C60002B14D03B682D22052199547B68012157
S1131C701800FFF7F2FB3B685B6A002B07D03B6858
S1131C805C6A3B689B6ABC4A39687868A0477B6891
S1131C901B79DBB202221340DBB2002B14D03B6869
S1131CA02D22042199547B6802211800FFF7D5FBEB
S1131CB03B685B6A002B07D03B685C6A3B689B6AA5
S1131CC0AE4A39687868A0477B681B79DBB2082282
S1131CD01340DBB2002B1CD001E07B68DB797B680E
S1131CE01B79DBB220221340DBB2002BF5D17B68D9
S1131CF008211800FFF7B1FB3B685B6A002B08D092
S1131D003B685C6A3B689B6A9722D20039687868B2
S1131D10A0477B681B79DBB210221340DBB2002B97
S1131D2023D07B68DB78DBB210221340DBB2002BBC
S1131D301BD07B6810211800FFF78FFB3B681B69E1
S1131D40002B06D180235A017B6811001800FFF78D
S1131D5023FB3B685B6A002B07D03B685C6A3B68EB
S1131D609B6A874A39687868A0477B681B79DBB22D
S1131D7020221340DBB2002B00D1BDE07B68DB786E
S1131D80DBB220221340DBB2002B00D1B4E00F23DE
S1131D90FB1801221A7036E00E243B1901221A7036
S1131DA03B68D9683B191A787B681800FFF710F86C
S1131DB03B68DA6820003B181B78D2183B68DA606D
S1131DC03B681A693B181B78D21A3B681A610F22C8
S1131DD0BB18B9183A18097812788A1A1A703B682D
S1131DE01B69002B0FD13B682D22022199543B68BB
S1131DF05B6A002B07D03B685C6A3B689B6A614A5C
S1131E0039687868A0470F23FB181B78002B03D090
S1131E103B681B69002BBFD13B689B69002B51D0E9
S1131E2047E03B681800FEF7A5FF031E0BD03B6894
S1131E305B6A002B07D03B685C6A3B689B6A524A2A
S1131E4039687868A0473B681800FEF793FF031EC3
S1131E5012D03B685B8C9BB25A1C3B68DB699A428C
S1131E6003D13B6800225A8406E03B685B8C9BB23A
S1131E7001339AB23B685A843B689B693A68128C76
S1131E8092B29B187A68D279D2B21A703B681B8CD2
S1131E909BB25A1C3B68DB699A4203D13B6800221F
S1131EA01A8406E03B681B8C9BB201339AB23B68F0
S1131EB01A840F22BB181B78BA18591E1170002BF4
S1131EC0AFD119E03B681B69002B15D1A2231A037B
S1131ED07B6811001800FFF75FFA7B689B78DBB220
S1131EE002221340DBB2002B06D080235A027B6807
S1131EF011001800FFF750FA3B682D229B5CDBB2FF
S1131F00042B05D03B682D229B5CDBB2052B19D139
S1131F103B689B69002B15D1A2231A037B6811002F
S1131F201800FFF739FA7B689B78DBB20222134072
S1131F30DBB2002B06D080235A027B681100180004
S1131F40FFF72AFA7B681B79DBB25BB2002B65DAF8
S1131F507B68DB78DBB25BB2002B5FDA0F23FB1804
S1131F6001221A7051E0C046A44B0000184E000034
S1131F705E030000904B0000BB040000BA040000A4
S1131F80BC040000B3040000B70400000E243B1995
S1131F9001221A703B6819683B191A787B6818008B
S1131FA0FEF742FF3B681A6820003B181B78D218E2
S1131FB03B681A603B685A683B181B78D21A3B6826
S1131FC05A600F22BB18B9183A18097812788A1A7D
S1131FD01A703B685B68002B17D13B682C220021E8
S1131FE099547B68DB78DBB27F221340DAB27B68DA
S1131FF0DA703B685B6A002B07D03B685C6A3B681D
S11320009B6A084A39687868A0470F23FB181B7835
S1132010002B03D03B685B68002BB7D1C046BD469C
S113202005B090BDB204000080B582B000AF786006
S11320303960C046BD4602B080BD80B500AF054BD7
S11320401A68054B1B68054819009047C046BD46F1
S113205080BDC04660E4FF1F5CE4FF1F00A0064093
S113206080B582B000AF0200FB1D1A70FB1D1B7807
S11320707F2B09D8FB1D1B781A001F231A40044B21
S1132080012191400A001A60C046BD4602B080BDDD
S113209000E100E080B584B000AF78607B681B0C81
S11320A0084A94466344FB60FB6819687B681B0418
S11320B01B0C01229A40FB680A431A60C046BD46C5
S11320C004B080BD0070044080B584B000AF786077
S11320D07B681B0C094A94466344FB60FB681A68DE
S11320E07B681B041B0C012199400B00D943FB683E
S11320F00A401A60C046BD4604B080BD007004406A
S113210080B582B000AF0200FB1D1A70FB1D1B7866
S11321105BB2803301D1012306E0FB1D1B785BB267
S11321201800FFF79DFF00231800BD4602B080BDD4
S113213080B584B000AF78600323BB600023FB60EC
S113214009E00F4BFA689200D3587A689A4207D094
S1132150FB680133FB60FA68BB689A42F1D300E084
S1132160C046FA68BB689A4205D3064B064A07483C
S1132170A12101F053F9FB681800BD4604B080BDED
S1132180304E00004C4E0000F44E0000684E00003B
S113219080B584B000AF78607B68002B05D1144B08
S11321A0144A1548A82101F039F97B685B8C9AB26E
S11321B07B681B8C9BB29A420CD97B681B8C9BB2AC
S11321C01A007B68DB69D3187A68528C92B29B1A26
S11321D0FB6008E07B681B8C9BB21A007B685B8CFD
S11321E09BB2D31AFB60FB681800BD4604B080BDE7
S11321F07C4E0000084F0000684E000080B584B09B
S113220000AF78607B68002B05D1104B104A114851
S1132210BA2101F003F97B681800FFF7B9FF020047
S11322207B68DB69013B9A4204D10F23FB1801222E
S11322301A7003E00F23FB1800221A700F23FB18F7
S11322401B781800BD4604B080BDC0467C4E00001B
S11322502C4F0000684E0000B0B586B000AFF860A7
S1132260B9607A60BB68002B05D1774B774A784810
S1132270CC2101F0D3F8BB681B68002B05D1754B4A
S1132280724A7348CD2101F0C9F816243B19002283
S11322901A801523FB1800221A7000233B61BB68C7
S11322A01B681B011900786802F052F903001A0038
S11322B03B191A803B191B88002B02D13B190122C0
S11322C01A8016257B191B881B011900786802F0F7
S11322D03FF903001A00BB681B68D31A3B61BB6853
S11322E01C687B191B8801331B011900786802F0F4
S11322F02FF90300E31A3A699A4211D9BB681C68A2
S11323007B191B8801331B011900786802F020F93E
S11323100300E31A3B617B191A887B1901321A8086
S1132320BB681B686421180002F012F903001A004C
S113233013005B009B183A699A4201D9464B7EE030
S1132340FB681800FFF7F4FE0200444B9200D358D8
S11323501800FFF79FFEFB68DB78DBB20C22934387
S1132360DAB2FB68DA70FB681B78DBB21F22934396
S1132370DAB216217B181B881B0A9BB2DBB213430B
S1132380DAB2FB681A707B181B88DAB2FB685A70E1
S1132390FB689B78DAB215203B1817218A431A7020
S11323A0BB689B799B00DBB204221340D9B23B1873
S11323B03A1812780A431A70BB681B79002B09D0AB
S11323C0BB681A793B181B781343DAB23B18102107
S11323D00A431A70FB6815203A1812789A70FB6841
S11323E01B78DBB220229343DAB2BB685B795B01D2
S11323F0DBB220210B40DBB21343DAB2FB681A7064
S11324003B18FA68D2781A70BB68DB79002B05D0C8
S11324103B183A18127808210A431A70BB681B7AD1
S1132420002B06D01522BB18BA18127804210A43CF
S11324301A70FB681522BA181278DA700023180093
S1132440BD4606B0B0BDC046844E00004C4F0000EF
S1132450684E00008C4E0000F5030000404E000062
S113246080B582B000AF7860C0467B681B79DBB270
S11324701A0040231340F8D07B680022DA707B688E
S11324801800FFF755FE0200044B9200D3581800C1
S1132490FFF71AFEC046BD4602B080BD404E0000A4
S11324A080B582B000AF78607B68002B06D10F4BFB
S11324B00F4A6C21FF310F4800F0B0FF7B68E12226
S11324C052021A607B6800221A717B6800225A71DA
S11324D07B6800229A717B680022DA717B68002293
S11324E01A72C046BD4602B080BDC046844E00008C
S11324F0584F0000684E000090B589B000AFF860F6
S1132500B9607A60BB68002B06D1434B434A8221F1
S1132510FF31434800F082FF1E243B1900221A8039
S11325200023BB61BB681B011900786802F010F836
S113253003001A003B191A803B191B88002B02D197
S11325403B1901221A801E243B191B881B01190008
S1132550786801F0FDFF03001A00BB68D31ABB6161
S11325603B191B8801331B011900786801F0F0FF47
S113257003001A00BB689B1ABA699A4211D93B1925
S11325801B8801331B011900786801F0E1FF030087
S11325901A00BB689B1ABB613B191A883B190132AC
S11325A01A80BB686421180001F0D2FF03001A00EE
S11325B013005B009B18BA699A4227D217217B1833
S11325C0FA68D2781A70FB68DB78DBB20C2293438A
S11325D0DAB2FB68DA70FB681B78DBB21F22934324
S11325E0DAB21E203B181B881B0A9BB2DBB21343D2
S11325F0DAB2FB681A703B181B88DAB2FB685A70AF
S1132600FB687A181278DA70002300E0054B180092
S1132610BD4609B090BDC046A44E0000704F0000F6
S1132620684E0000F503000080B582B000AF78600A
S113263039603B68114A13403B607B681B78DAB20F
S11326403B68DBB21343DAB27B681A707B68DB78D1
S1132650DAB23B681B0ADBB21343DAB27B68DA7086
S11326607B689B79DAB23B681B0CDBB21343DAB2AA
S11326707B689A71C046BD4602B080BDC0F00F00B1
S113268080B582B000AF786039603B68144A13406B
S11326903B607B681B78DBB23A68D2B2D243D2B2D9
S11326A01340DAB27B681A707B68DB78DBB23A6875
S11326B0120AD2B2D243D2B21340DAB27B68DA70D1
S11326C07B689B79DBB23A68120CD2B2D243D2B2A5
S11326D01340DAB27B689A71C046BD4602B080BD31
S11326E0C0F00F0080B584B000AF78607B681B78C1
S11326F0DBB21A007B68DB78DBB21B021A437B680F
S11327009B79DBB21B041343FB60FB68024A134052
S11327101800BD4604B080BDC0F00F0080B584B081
S113272000AF78607B681B79DBB21A007B685B7949
S1132730DBB21B021343FB60FB681800BD4604B008
S113274080BD80B584B000AF786039600B203B1841
S11327507A6852791A703B183A1812783F210A4065
S11327601A703B681B0ADAB23B181B781343DAB2BF
S11327707B685A713B681722134003D07B681B792E
S11327807B68DB793B680822134003D07B681B79A4
S11327907B68DB797B681800FFF7C0FF02003B68A9
S11327A0134002D0044BFB6001E00023FB60FB6894
S11327B01800BD4604B080BDEE03000080B584B0AF
S11327C000AFF860B9607A600CE0C046FB681B7922
S11327D0DBB25BB2002BF9DABB685A1CBA601A7818
S11327E0FB68DA717B685A1E7A60002BEDD1C04613
S11327F0C046BD4604B080BD80B586B000AFF86069
S1132800B9607A60BB68002B05D10D4B0D4A0E49A7
S11328100E4800F003FE00237B6108E0BA687B6980
S1132820D3181A78FB68DA717B6901337B617A69A2
S11328307B689A42F2D3C046C046BD4606B080BD0E
S1132840B44E0000844F000041020000684E0000B6
S113285080B586B000AFF860B9607A60BB68002BC1
S113286032D11E4B1E4A1F491F4800F0D7FDFB689A
S11328701800FFF753FF03007B617B6908221340B4
S113288001D01A4B26E07B690422134001D0184B77
S113289020E07B690222134001D0164B1AE07B69C9
S11328A00122134002D0FD239B0013E0FB681B7937
S11328B0DBB21A0020231340D9D0BB685A1CBA607B
S11328C0FA68D279D2B21A707B685A1E7A60002BE9
S11328D0ECD100231800BD4606B080BDB44E000004
S11328E09C4F00004F020000684E0000F1030000FE
S11328F0F2030000F303000080B586B000AFF86077
S1132900B9607A60BB68002B05D10E4B0E4A0F49A3
S11329100F4800F083FD00237B6109E0BA687B69FE
S1132920D318FA68D279D2B21A707B6901337B6109
S11329307A697B689A42F1D3C046C046BD4606B068
S113294080BDC046B44E0000B04F000079020000C4
S1132950684E000080B586B000AFF860B9607A6058
S11329603B60BB68002B05D1194B1A4A1A491B4816
S113297000F054FDBB6830220021180001F0ACFFC8
S1132980BB682D2202219954BB682C220021995442
S1132990BB687A685A62BB683A689A62FB68180036
S11329A0FFF7C6FB03007B610D4B7A699200B9689F
S11329B0D1500C4B0C4A1A600C4A7B69D3181B7813
S11329C05BB21800FFF79CFBC046BD4606B080BD55
S11329D07C4E0000C84F00008A020000684E0000D0
S11329E064E4FF1F70E4FF1F892F00003C4E0000C9
S11329F080B584B000AFF860B9607A603B60BB68B2
S1132A00002B05D11A4B1B4A1B491C4800F006FD3C
S1132A107B68002B05D11A4B164A1A49174800F057
S1132A20FDFCBB687A689A61BB683A68DA61BB6886
S1132A3000221A84BB6800225A84A2231A03FB686A
S1132A4011001800FFF7F0FDFB689B78DBB202224F
S1132A501340DBB2002B06D080235A02FB6811001E
S1132A601800FFF7E1FDC046BD4604B080BDC04676
S1132A707C4E0000E44F0000A6020000684E0000F7
S1132A80BC4E0000A702000080B582B000AF7860A1
S1132A9039603B68002B05D1184B194A19491A486B
S1132AA000F0BCFC3B682D229B5CDBB2022B15D1F1
S1132AB0A2231A037B6811001800FFF7E1FD7B686D
S1132AC09B78DBB202221340DBB2002B06D08023BA
S1132AD05A027B6811001800FFF7D2FD3B68002200
S1132AE09A613B680022DA613B6800221A843B68E1
S1132AF000225A84C046BD4602B080BD7C4E000010
S1132B0004500000BB020000684E000080B586B08F
S1132B1000AFF860B9607A60BB68002B06D1264B21
S1132B20264AB4218900264800F078FC7B68002BF3
S1132B3005D1244B214A2449214800F06FFC7B68CD
S1132B405B68002B05D1214B1C4A21491C4800F02D
S1132B5065FC7B681B68002B05D11E4B174A1E4978
S1132B60174800F05BFCBB682C229B5CDBB2012B9A
S1132B7003D1FA239B007B6118E07B681A68BB6869
S1132B801A607B685A68BB685A607B685A68BB687D
S1132B909A60BB682C220121995480231A02FB6895
S1132BA011001800FFF740FD00237B617B691800CA
S1132BB0BD4606B080BDC0467C4E000020500000DB
S1132BC0684E0000C84E0000D1020000D04E000044
S1132BD0D2020000E04E0000D302000080B582B0B3
S1132BE000AF786039603B68002B05D10B4B0C4A71
S1132BF00C490D4800F012FCC0231A027B68110036
S1132C001800FFF73DFD3B6800225A603B682C2208
S1132C1000219954C046BD4602B080BD7C4E0000E0
S1132C2040500000EE020000684E000080B584B001
S1132C3000AFF860B9607A60BB68002B06D1124B14
S1132C40124ABE218900124800F0E8FB7B68002B81
S1132C5005D1104B0D4A10490D4800F0DFFBBB684D
S1132C602C229B5CDBB2002B01D1062307E0BB685E
S1132C709A68BB685B68D21A7B681A6000231800E4
S1132C80BD4604B080BDC0467C4E000058500000D4
S1132C90684E0000EC4E0000F902000090B58BB0C5
S1132CA000AFF860B9607A603B60BB68002B05D167
S1132CB06D4B6E4A6E496F4800F0B0FB7B68002B89
S1132CC005D16D4B694A6D496A4800F0A7FB7B68E2
S1132CD01B68002B06D16A4B644AC32189006548EE
S1132CE000F09CFB7B685B68002B05D1654B5F4A59
S1132CF06549604800F092FB00237B61BB682D228C
S1132D009B5CDBB2032B02D1604B3B62A6E07B6889
S1132D105B68FB610023BB61BB689B69002B00D12E
S1132D206EE080239A01FB6811001800FFF7A8FCED
S1132D30BB681800FFF72CFA03007B617B69002B4A
S1132D4034D0FA697B69934200D913007B61FA6934
S1132D507B69D31AFB6100237B6223E0BB689B6918
S1132D60BA68528C92B29A187B681968BB69581C6D
S1132D70B861CB1812781A70BB685B8C9BB25A1C72
S1132D80BB68DB699A4203D1BB6800225A8406E01F
S1132D90BB685B8C9BB201339AB2BB685A847B6A72
S1132DA001337B627A6A7B699A42D7D3FB69002B31
S1132DB00FD07B681A68BB69D218BB68DA60BB683D
S1132DC0FA691A61BB68FA695A61BB682D2203214A
S1132DD0995480239A01FB6811001800FFF724FC22
S1132DE0FB69002B32D1BB685B6A002B2ED0BB6819
S1132DF05C6ABB689B6A264AB968F868A04725E004
S1132E007B681A68BB69D218BB68DA60BB68FA6968
S1132E101A61BB68FA695A61BB682D22032199546F
S1132E20A3231A03FB6811001800FFF7FDFBFB68DE
S1132E309B78DBB202221340DBB2002B06D0802346
S1132E405A02FB6811001800FFF7EEFB3B68002BE9
S1132E5002D03B68BA691A6000233B623B6A1800DF
S1132E60BD460BB090BDC0467C4E000074500000BF
S1132E700A030000684E0000C84E00000B03000067
S1132E80E04E0000D04E00000D030000E9030000F6
S1132E90EB03000080B582B000AF786039603B6816
S1132EA0002B05D1154B164A1649174800F0B6FAFF
S1132EB03B689B69002B15D1A3231A037B6811007F
S1132EC01800FFF7DDFB7B689B78DBB2022213401E
S1132ED0DBB2002B06D080235A027B681100180055
S1132EE0FFF7CEFB3B6800221A613B682D220221CA
S1132EF09954C046BD4602B080BDC0467C4E000019
S1132F009450000081030000684E000080B584B036
S1132F1000AFF860B9607A60BB68002B05D1144B30
S1132F20144A1549154800F079FA7B68002B05D13D
S1132F30134B104A1349114800F070FABB682D2254
S1132F409B5CDBB2022B01D106230CE07B68002BD7
S1132F5001D1042307E0BB685A69BB681B69D21A14
S1132F607B681A6000231800BD4604B080BDC046CB
S1132F707C4E0000B050000096030000684E000034
S1132F80EC4E00009703000090B585B000AF786068
S1132F9039603B68002B05D1A94BAA4AAA49AB4822
S1132FA000F03CFA7B681B79DBB202221340DBB2EF
S1132FB0002B1CD001E07B68DB797B681B79DBB2DA
S1132FC01A0020231340F6D13B682D220421995482
S1132FD03B6800221A613B685B6A002B07D03B68A0
S1132FE05C6A3B689B6A9A4A39687868A0477B6840
S1132FF01B79DBB201221340DBB2002B1DD001E0B0
S11330007B68DB797B681B79DBB21A0020231340D1
S1133010F6D13B682D22052199543B6800221A61A0
S11330203B685B6A002B08D03B685C6A3B689B6A20
S1133030FD22920039687868A0477B681B79DBB26F
S113304008221340DBB2002B15D001E07B68DB794A
S11330507B681B79DBB21A0020231340F6D13B684E
S11330605B6A002B07D03B685C6A3B689B6A794AC1
S113307039687868A0477B681B79DBB2102213405B
S1133080DBB2002B2DD07B68DB78DBB2102213403F
S1133090DBB2002B25D001E07B68DB797B681B79F0
S11330A0DBB210221340DBB2002BF5D13B681B6965
S11330B0002B06D180235A017B6811001800FFF70A
S11330C0DFFA3B685B6A002B0BD03B681B69002B63
S11330D007D03B685C6A3B689B6A5F4A39687868DA
S11330E0A0477B681B79DBB220221340DBB2002BA4
S11330F000D1CFE07B68DB78DBB220221340DBB267
S1133100002B00D1C6E00F23FB1801221A7036E011
S11331100E243B1901221A703B68D9683B191A78AE
S11331207B681800FFF7E8FB3B68DA6820003B186F
S11331301B78D2183B68DA603B681A693B181B7825
S1133140D21A3B681A610F22BB18B9183A180978C9
S113315012788A1A1A703B681B69002B0FD13B68DE
S11331602D22022199543B685B6A002B07D03B68EF
S11331705C6A3B689B6A394A39687868A0470F23C0
S1133180FB181B78002B03D03B681B69002BBFD1B5
S11331903B689B69002B63D048E03B681800FFF74D
S11331A02DF8031E0CD03B685B6A002B08D03B68EB
S11331B05C6A3B689B6AFC22920039687868A04785
S11331C03B681800FFF71AF8031E12D03B685B8CAB
S11331D09BB25A1C3B68DB699A4203D13B680022CC
S11331E05A8406E03B685B8C9BB201339AB23B681D
S11331F05A843B689B693A68128C92B29B187A682D
S1133200D279D2B21A703B681B8C9BB25A1C3B68B1
S1133210DB699A4203D13B6800221A8406E03B68CA
S11332201B8C9BB201339AB23B681A840F22BB18E1
S11332301B78BA18591E1170002BAED12AE0C04673
S11332407C4E0000D0500000AA030000684E00002D
S1133250F3030000F1030000F6030000EB03000099
S11332603B681B69002B15D1A2231A037B6811004C
S11332701800FFF705FA7B689B78DBB20222134043
S1133280DBB2002B06D080235A027B6811001800A1
S1133290FFF7F6F93B682D229B5CDBB2042B05D0CB
S11332A03B682D229B5CDBB2052B19D13B689B69E3
S11332B0002B15D1A3231A037B6811001800FFF714
S11332C0DFF97B689B78DBB202221340DBB2002B70
S11332D006D080235A027B6811001800FFF7D0F94A
S11332E07B681B79DBB25BB2002B52DA7B68DB783C
S11332F0DBB25BB2002B4CDA0F23FB1801221A70ED
S11333003EE00E243B1901221A703B6819683B19F0
S11333101A787B681800FFF76FFA3B681A68200078
S11333203B181B78D2183B681A603B685A683B18F4
S11333301B78D21A3B685A600F22BB18B9183A1886
S1133340097812788A1A1A703B685B68002B17D1C7
S11333503B682C22002199547B68DB78DBB27F2206
S11333601340DAB27B68DA703B685B6A002B07D0E3
S11333703B685C6A3B689B6A084A39687868A0477E
S11333800F23FB181B78002B03D03B685B68002BD2
S1133390B7D1C046BD4605B090BDC046EA030000A3
S11333A080B582B000AF78603960C046BD4602B0D7
S11333B080BD80B500AF054B1A68054B5B680548B6
S11333C019009047C046BD4680BDC04670E4FF1F4B
S11333D064E4FF1F00B0064080B500AFFFF7E9FFCB
S11333E0C046BD4680BD80B500AF054B1A68054B8D
S11333F09B68054819009047C046BD4680BDC0463D
S113340070E4FF1F64E4FF1F00C0064080B500AFF6
S1133410FFF7E9FFC046BD4680BDC04690B587B002
S113342002AFF860B9607A603B60BC68FA683968DA
S113343003487B680093230000F03AF800BEFDE7E0
S1133440E850000090B585B000AFF860B9603B600B
S1133450FB1D1A70FB1D1B78002B05D1094B0A4A72
S11334600A486921FFF7DAFF3C68BA68FB1D19783E
S1133470F868230000F094FA03001800BD4605B074
S113348090BDC04628510000745100005451000002
S113349080B500AF00F0A1FA00231800BD4680BD3E
S11334A080B500AF00F0A0FA03001800BD4680BD4F
S11334B00FB4F0B5A5B000AF00238C243A19136003
S11334C0002388257A1913603B1D00221A600433F7
S11334D07C220021180001F0FFF99C2308269B1987
S11334E008229446BC44634484217A181360114B27
S11334F03A1D79180968982080190826B446BC44F6
S11335006044006800F01EFC03003A1913603B1984
S11335101A683B1D1100180000F06EFA03007A19B6
S113352013607B191B681800BD4625B0F0BC08BCAD
S113353004B01847B935000080B582B000AF786098
S11335403B1D0121180000F057FA03001800BD4686
S113355002B080BD0FB480B588B000AF3B0000223C
S11335601A60043311220021180001F0B5F93B0060
S11335701421180000F085FA2C23FB18BB61BA69EA
S1133580B96A3B00180000F06FFD0300FB61FB69A2
S11335901800BD4608B080BC08BC04B0184780B50C
S11335A082B000AFFB1D180000F0C6FAFB1D1B78AB
S11335B01800BD4602B080BD80B586B000AFF8608B
S11335C0B9603B60FB1D1A7000237B6100237B61A3
S11335D01FE0BB681B6801337F2B0AD9BB681B68DB
S11335E01A00FB681100180000F006FABB680022FC
S11335F01A60BB681B681A00FB689B18FA1D1278D6
S11336001A70BB681B685A1CBB681A607B6901335B
S11336107B617A693B689A42DBDBC046C046BD46A3
S113362006B080BD80B584B000AFF860B9607A6040
S1133630BB68002B02D101235B420FE0FB68012B26
S113364005D0FB68022B02D001235B4206E07A68B6
S1133650BB681100180000F0CFF97B681800BD4664
S113366004B080BD80B584B000AFF860B9607A6002
S1133670FB68002B02D001235B4206E07A68BB683A
S11336801100180000F0FDF903001800BD4604B055
S113369080BDC04680B582B000AF78600A00FB1CD4
S11336A01A70FB1C1B78002B08D07B68DB78DBB21C
S11336B008221343DAB27B68DA7007E07B68DB78B0
S11336C0DBB208229343DAB27B68DA70C046BD46A7
S11336D002B080BD80B582B000AF78600A00FB1CE8
S11336E01A70FB1C1B78002B08D07B68DB78DBB2DC
S11336F004221343DAB27B68DA7007E07B68DB7874
S1133700DBB204229343DAB27B68DA70C046BD466A
S113371002B080BD80B582B000AF78600A00FB1CA7
S11337201A70FB1C1B78002B08D07B68DB78DBB29B
S113373008221343DAB27B68DA7007E07B68DB782F
S1133740DBB208229343DAB27B68DA70C046BD4626
S113375002B080BD80B582B000AF78600A00FB1C67
S11337601A70FB1C1B78002B08D07B68DB78DBB25B
S113377004221343DAB27B68DA7007E07B68DB78F3
S1133780DBB204229343DAB27B68DA70C046BD46EA
S113379002B080BD90B58BB000AFF860B9607A60BC
S11337A03B60FB68002B05D12B4B2C4A2C48FF2196
S11337B0FFF734FEFB681A792A4B1A71FB681A6802
S11337C0284B1A60274B1B79062B05D03EDC012BB6
S11337D002D0032B1DD039E01C243B191800FEF73E
S11337E05FFE21007B18BA681A601E4B1B687A685A
S11337F079181800FEF730FD1A4B1B6801211800D8
S1133800FFF748FF174B1B6801211800FFF762FF01
S11338101DE010243B191800FDF78AFC21007B18D9
S1133820BA681A600F4B1B687A6879181800FDF79C
S113383025FB0C4B1B6801211800FFF76BFF094B9C
S11338401B6801211800FFF785FF00E0C046C04651
S1133850BD460BB090BDC04684510000A451000089
S11338609051000074E4FF1F80B500AF134B1B7927
S1133870002B01D100231DE0104B1B79062B05D032
S113388010DC012B02D0032B06D00BE00B4B1B6882
S11338901800FEF7E5FD09E0084B1B681800FDF76A
S11338A02DFC03E0054B00221A71C046034B002295
S11338B01A7100231800BD4680BDC04674E4FF1F82
S11338C080B500AF104B1B79012B02D0032B0BD01A
S11338D015E0C0460C4B1B681800FEF71FFF0300E1
S11338E040221340F6D00AE0C046074B1B6818007C
S11338F0FDF7A0FD030040221340F6D0C04600238C
S11339001800BD4680BDC04674E4FF1F80B586B074
S113391000AFF860B960FB1D1A7000237B611F4B78
S11339201B79062B05D030DC012B02D0032B16D0DB
S11339302BE0FB1D1B78002B07D0184B1B68BA68C3
S1133940F9681800FEF73AFF22E0144B1B68BA68C6
S1133950F9681800FEF77CFF03007B6118E0FB1D8B
S11339601B78002B07D00D4B1B68BA68F968180048
S1133970FDF7BEFD0CE0094B1B68BA68F968180036
S1133980FDF7E4FD03007B6102E001237B61C04697
S11339907B691800BD4606B080BDC04674E4FF1FB5
S11339A090B587B000AFF8607A603B600B243B1998
S11339B00A1C1A70FA6810203B181A603B183A194E
S11339C012781A713A68796838180023FFF7E2FE12
S11339D000231800BD4607B090BD80B500AFFFF7C7
S11339E043FFC046BD4680BD80B500AFFFF768FF0A
S11339F000231800BD4680BD80B582B000AF78605A
S1133A0039607B68002B06D1084B094A4021FF31FD
S1133A100848FFF703FD3A687B681100180000F0BE
S1133A200BF803001800BD4602B080BDAC51000085
S1133A30D8510000B851000080B584B000AF786060
S1133A4039600F217B1800221A703B68002B13D0B9
S1133A507B68002B10D07B1801221A707B181B780E
S1133A60002B09D039687B6801221800FFF74EFF4C
S1133A70031E01D000233B603B681800BD4604B020
S1133A8080BD80B584B000AF786039607B68002B5E
S1133A9006D1264B264AB22149002648FFF7BEFC30
S1133AA00023FB600023FB6024E0FB687A68D318E2
S1133AB0180000F069F8031E02D001235B4230E0D5
S1133AC0FB687A68D3181B780D2B05D0FB687A68DD
S1133AD0D3181B780A2B0AD1FB68002B0FD1FB6883
S1133AE07A68D31800221A7001235B42FB60FB68DA
S1133AF00133FB60FB683A689A42D6D800E0C046BE
S1133B00FB683A689A4205D1FB687A68D3180022A8
S1133B101A7005E0FB6801337A68D31800221A7022
S1133B20FB681800BD4604B080BDC046AC5100001F
S1133B30E4510000B851000080B584B000AF786053
S1133B407B68002B06D10D4B0D4ACB2149000D4853
S1133B50FFF764FC0023FB607B68180000F014F896
S1133B60031E02D10123FB6002E001235B42FB60E0
S1133B70FB681800BD4604B080BDC046CC510000AF
S1133B80F4510000B851000080B582B000AF7860F5
S1133B907B68002201211800FFF7B8FE031E01D044
S1133BA0012300E000231800BD4602B080BDC046DA
S1133BB080B584B000AF78600F23FB1800221A7020
S1133BC07B681A680E23FB1812781A7010E00F2114
S1133BD07B181A787B1801321A707B681B685A1C90
S1133BE07B681A607B681A680E23FB1812781A70B7
S1133BF00E22BB181B78202BE9D0BB181B78092B8D
S1133C00E5D0BB181B780A2BE1D0BB181B780D2B11
S1133C10DDD0BB181B780B2BD9D0BB181B780C2B11
S1133C20D5D00F23FB181B781800BD4604B080BD07
S1133C3080B58CB000AFF860B9607A603B60002357
S1133C40FB61FB68BB61BB695A1CBA6100221A7034
S1133C507B68002B35D0BB681B68FB62FB6A002BBA
S1133C602BD1BB6930221A70FB690133FB61FB69FC
S1133C7064E03968F86A00F0F5FC03003B613B69D5
S1133C803A685343FA6AD31ABB62BB6A002B06DA5A
S1133C90BB6A3B623B6A3022D31ABB6202E0BB6A56
S1133CA03033BB623B69FB62BB695A1CBA61BA6AB6
S1133CB0D2B21A70FB690133FB61FB6A002BD8D1C5
S1133CC03BE0BB681B687B627B6A002B32D1BB691B
S1133CD030221A70FB690133FB61FB692EE03B68FB
S1133CE01900786A00F034FC03007B613B687A6950
S1133CF053437A6AD31A3B623B6A092B03D83B6A63
S1133D0030333B620BE03823FB181B78002B01D0C7
S1133D10412300E061233A6A9B180A3B3B627B69BA
S1133D207B62BB695A1CBA613A6AD2B21A70FB69E7
S1133D300133FB617B6A002BD1D1FB691800BD46BE
S1133D400CB080BD90B59DB002AFF860B9607A60E8
S1133D503B6000233B660023FB650023BB614A23D1
S1133D60FB1800221A7000233B61FB687B666FE13D
S1133D707B6C252B08D07B6CDAB21823F918786891
S1133D803C680123A04760E14B23FB1801221A7011
S1133D9000237B650023BB651BE07B6E01337B66E0
S1133DA07B6E1B787B647B6C2F2B0DDD7B6C392B3E
S1133DB00ADC7A6D13009B009B185B001A007B6C75
S1133DC0D318303B7B6504E07B6E013B7B660123AB
S1133DD0BB65BB6D002BE0D006233B657B6E0133D6
S1133DE07B667B6E1B782E2B24D100233B6500233E
S1133DF0BB651BE07B6E01337B667B6E1B787B644B
S1133E007B6C2F2B0DDD7B6C392B0ADC3A6D130098
S1133E109B009B185B001A007B6CD318303B3B65FE
S1133E2004E07B6E013B7B660123BB65BB6D002B0D
S1133E30E0D002E07B6E013B7B667B6E01337B66E8
S1133E407B6E1B787B647B6C642B1BD07B6C692B37
S1133E5018D07B6C662B15D07B6C462B12D07B6CF8
S1133E60782B0FD07B6C582B0CD07B6C6F2B09D02C
S1133E707B6C622B06D07B6C702B03D07B6C752B18
S1133E8000D09EE07B6C642B02D07B6C692B16D136
S1133E90BB681A1DBA601B687B611423F9181C24C3
S1133EA038194B23FB181B7800930A230122FFF7D0
S1133EB0BFFE0300FB653A19FB6DD3183B667B6CB0
S1133EC0582B02D07B6C782B1DD17B6C782B03D1C3
S1133ED04B23FB1800221A70BB681A1DBA601B68BA
S1133EE03B611023F9181C2438194B23FB181B7849
S1133EF0009310230022FFF79BFE0300FB653A1991
S1133F00FB6DD3183B667B6C6F2B08D07B6C622BEC
S1133F1005D07B6C702B02D07B6C752B35D1BB68C4
S1133F201A1DBA601B683B617B6C6F2B04D14A235A
S1133F30FB1808221A7013E07B6C622B04D14A230D
S1133F40FB1802221A700BE07B6C702B04D14A23FD
S1133F50FB1810221A7003E04A23FB180A221A7075
S1133F604A23FB181A781023F9181C2438194B23F8
S1133F70FB181B78009313000022FFF759FE03007F
S1133F80FB653A19FB6DD3183B66FB6D7A6DD31A4A
S1133F901822B91878683C682022A0473B6E002B91
S1133FA053D009E03B6E5A1E3A661A781823F91862
S1133FB078683C680123A0473B6E1B78002BF1D145
S1133FC043E07B6C632B0ED1BB681A1DBA601B687F
S1133FD0DBB23B643B6CDAB21823F91878683C68AE
S1133FE00123A04731E07B6C732B26D1BB681A1DDB
S1133FF0BA601B68FB64FB6C002B26D0FB6C1800BA
S113400000F0BEFC0300FB65FB6D7A6DD31A182229
S1134010B91878683C682022A04709E0FB6C5A1C58
S1134020FA641A781823F91878683C680123A047C1
S1134030FB6C1B78002BF1D107E07B6CDAB2182300
S1134040F91878683C680123A0477B6E01337B66CE
S11340507B6E1B787B647B6C002B00D088E6BB698D
S11340601800BD461BB090BD80B58EB000AFF8609F
S1134070B9607A60BB687B610023FB6200237B62CA
S113408000233B62FB683B613B691B78002B00D03B
S11340904DE201235B4256E21423FB181800FFF79C
S11340A087FD031E09D01023FB181800FFF780FDBD
S11340B002003B6A9B183B6239E27B691B78252B23
S11340C008D17B691B78252B18D17B6901331B78B8
S11340D0252B13D17B6901337B613B691A787B699A
S11340E01B789A4200D02CE23B6A01333B623B6965
S11340F001333B617B6901337B6118E27B690133E6
S11341007B610023FB620023BB623723FB18002280
S11341101A707EE07B691B78303B482B00D976E02F
S11341209A00C64BD3181B689F46BB6A002B01D06C
S11341307B6A08E2BA6A13009B009B185B001A00B2
S11341407B691B78D318303BBB627B6901337B618D
S11341507B691B782F2B5CD97B691B78392BE9D9B8
S113416057E03723FB180A221A70FB6A8022920157
S11341701343FB62FB6A20221343FB627B69013316
S11341807B6146E03723FB180A221A70FB6A20225F
S11341901343FB627B6901337B613AE03723FB18ED
S11341A008221A70FB6A20221343FB627B690133E5
S11341B07B612EE03723FB1810221A70FB6A202241
S11341C01343FB627B6901337B6122E03723FB18D5
S11341D000221A70FB6A20221343FB627B690133BD
S11341E07B6116E0FB6A04221343FB62BB6A002B6B
S11341F001D10123BB627B6901337B6109E0FB6A66
S113420008221343FB627B6901337B6101E07B6A13
S113421099E17B691B78002B04D0FB6A7C22134054
S113422000D177E7FB6A7C22134001D17B6A8AE1E3
S1134230BB6A002B01D16323BB62FB6A7C2213405F
S1134240202B00D18EE000D96FE1042B02D0082B83
S113425032D06AE13B69BB617B681A1D7A601B68D6
S11342603B6312E0FB6A0222134008D13A69531CF3
S11342703B613B6B591C396312781A7002E03B694D
S113428001333B613B6A01333B62BB6A5A1EBA622B
S1134290002B03D03B691B78002BE3D1FB6A02227D
S11342A0134000D043E13B69BA699A4200D13EE130
S11342B07B6A01337B623AE11023FB181800FFF795
S11342C077FC02003B6A9B183B623B69BB617B68DD
S11342D01A1D7A601B683B6312E0FB6A02221340DA
S11342E003D03B6901333B6107E03A69531C3B61EE
S11342F03B6B591C396312781A703B6A01333B6279
S1134300BB6A5A1EBA62002B1BD03B691B78002B78
S113431017D03B691B78202B13D03B691B78092BE2
S11343200FD03B691B780A2B0BD03B691B780D2BF4
S113433007D03B691B780B2B03D03B691B780C2BF4
S1134340CBD1FB6A0222134000D0F0E03B69BA698A
S11343509A4200D1EBE03B6B00221A707B6A013376
S11343607B62E4E01023FB181800FFF721FC020035
S11343703B6A9B183B623B69BB610023FB613722AC
S1134380BB181B78002B03D0BB181B78102B1DD136
S1134390BB691B78302B19D1BB6901331B78782B8F
S11343A004D0BB6901331B78582B0FD13723FB187A
S11343B010221A70BB6A002B08D03B6902333B61A0
S11343C03B6A02333B62BB6A023BBB623722BB18C7
S11343D01B78002B0BD1BB691B78302B03D1BB1886
S11343E008221A7003E03723FB180A221A703621B8
S11343F07B1801221A703B691B782B2B0ED02D2BB6
S11344001AD17B18FF221A703B6A01333B623B6965
S113441001333B61BB6A013BBB620EE03623FB18F0
S113442001221A703B6A01333B623B6901333B61F1
S1134430BB6A013BBB6200E0C0464AE00852000090
S11344403B691B78392B0AD83B691B782F2B06D97B
S11344503B691A783523FB18303A1A7023E03B691C
S11344601B78662B0AD83B691B78602B06D93B69FD
S11344701A783523FB18573A1A7014E03B691B78F5
S1134480462B0AD83B691B78402B06D93B691A781E
S11344903523FB18373A1A7005E03523FB18372209
S11344A0BA1812781A7035203A1837217B18127806
S11344B01B789A4217D27B181B78FA695A433B1827
S11344C01B78D318FB613B6901333B613B6A0133C1
S11344D03B623B691B78002B06D0BB6A5A1EBA624A
S11344E0002BADD100E0C0463623FB1800229A56BB
S11344F0FB695343FB61FB6A0222134017D1FA6A3A
S113450080239B01134006D07B681A1D7A601B68C8
S1134510FA691A6005E07B681A1D7A601B68FA69FB
S11345201A607B6A01337B6201E07B6A0BE07B6982
S11345301B78002B06D03B691B78002B00D0ABE521
S113454000E0C0467B6A1800BD460EB080BDC04680
S1134550002243088B4274D303098B425FD3030ABE
S11345608B4244D3030B8B4228D3030C8B420DD3D1
S1134570FF22090212BA030C8B4202D3121209025F
S113458065D0030B8B4219D300E0090AC30B8B429D
S113459001D3CB03C01A5241830B8B4201D38B034B
S11345A0C01A5241430B8B4201D34B03C01A5241F0
S11345B0030B8B4201D30B03C01A5241C30A8B4233
S11345C001D3CB02C01A5241830A8B4201D38B021E
S11345D0C01A5241430A8B4201D34B02C01A5241C2
S11345E0030A8B4201D30B02C01A5241CDD2C30934
S11345F08B4201D3CB01C01A524183098B4201D3B0
S11346008B01C01A524143098B4201D34B01C01A9A
S1134610524103098B4201D30B01C01A5241C30812
S11346208B4201D3CB00C01A524183088B4201D381
S11346308B00C01A524143088B4201D34B00C01A6D
S11346405241411A00D20146524110467047FFE7D9
S113465001B5002000F0F0F802BDC0460029F7D0F3
S113466076E7704703460B437FD4002243088B420E
S113467074D303098B425FD3030A8B4244D3030BE5
S11346808B4228D3030C8B420DD3FF22090212BAAA
S1134690030C8B4202D31212090265D0030B8B4226
S11346A019D300E0090AC30B8B4201D3CB03C01A10
S11346B05241830B8B4201D38B03C01A5241430BEB
S11346C08B4201D34B03C01A5241030B8B4201D3DB
S11346D00B03C01A5241C30A8B4201D3CB02C01A46
S11346E05241830A8B4201D38B02C01A5241430ABE
S11346F08B4201D34B02C01A5241030A8B4201D3AD
S11347000B02C01A5241CDD2C3098B4201D3CB0153
S1134710C01A524183098B4201D38B01C01A524102
S113472043098B4201D34B01C01A524103098B4206
S113473001D30B01C01A5241C3088B4201D3CB00F1
S1134740C01A524183088B4201D38B00C01A5241D4
S113475043088B4201D34B00C01A5241411A00D284
S113476001465241104670475DE0CA0F00D04942ED
S1134770031000D34042534000229C4603098B425D
S11347802DD3030A8B4212D3FC22890112BA030AE5
S11347908B420CD3890192118B4208D38901921167
S11347A08B4204D389013AD0921100E08909C309EC
S11347B08B4201D3CB01C01A524183098B4201D3EE
S11347C08B01C01A524143098B4201D34B01C01AD9
S11347D0524103098B4201D30B01C01A5241C30851
S11347E08B4201D3CB00C01A524183088B4201D3C0
S11347F08B00C01A5241D9D243088B4201D34B00DB
S1134800C01A5241411A00D20146634652415B101C
S1134810104601D34042002B00D5494270476346FD
S11348205B1000D3404201B5002000F005F802BD42
S11348300029F8D016E770477047C04610B501004C
S113484000230022002000F0C9F810BD10B500219B
S1134850040000F007F9044B1868C36B002B00D068
S11348609847200000F06EF92C53000070B5074DF6
S1134870074C641BA41005D0013CA300EB589847D7
S1134880002CF9D100F05AFD70BDC0465853000009
S11348905C53000070B50C4D0C4E761BB61005D061
S11348A0002408CD01349847A642FAD100F040FD17
S11348B0074D084E761BB61005D0002408CD0134F0
S11348C09847A642FAD170BD5053000050530000DF
S11348D05053000058530000F0B50500830749D039
S11348E0541E002A45D003000326CAB202E0013553
S11348F0013C3ED301332A703342F8D1032C30D922
S1134900FF220A40150215432A0415430F2C34D9FB
S11349102700103F3F093E01B4461E001A0010361E
S11349206644156055609560D5601032B242F8D186
S113493001373F01DB190F270C22274022403C009E
S1134940002A0ED03E1FB608B400A4461A001C1D4F
S1134950644420C2A242FCD103240136B6009B1950
S11349603C40002C05D0C9B21C19197001339C427B
S1134970FBD1F0BD03001400C0E72700E2E7C04606
S113498010B583070AD00300032102E001330B4270
S113499005D01A78002AF9D1181A10BD0300196835
S11349A00C4A0D4C8A188A4322420FD15968094A8D
S11349B004338A188A43224208D15968054A0433C9
S11349C08A188A432242F1D000E001331A78002A7F
S11349D0FBD1E1E7FFFEFEFE80808080F0B5C64695
S11349E000B51F4C82B024680194A424019D640086
S11349F02D59002D2BD06C681F2C2EDC002809D1DA
S1134A000020631C0234A4006B60615102B080BCBE
S1134A10B846F0BD8827A600AE19F2510137FF371A
S1134A20BC460122AC446746A2403F689046174307
S1134A306246176084277F00F3510228E0D12B00DF
S1134A4040468D33FF331A6810431860D8E7019D40
S1134A50019E4D35FF353551CDE701204042D5E764
S1134A602C530000F0B54E46DE4657464546A42278
S1134A70E0B5334B52001B6883B09E5889460190C1
S1134A800093002E3DD075686C1E3AD40135AD00FC
S1134A902B0080339846C4235B009B46771901356D
S1134AA0FF35B0447519B34407E004235B429C46C8
S1134AB0043FE044ED18013C23D34B46002B02D0C5
S1134AC02B684B45F1D173683A68013BA34231D05E
S1134AD000233B60002AE8D0736859469A460123B4
S1134AE0A3400968194213D19047736853451CD1F8
S1134AF0A422009B52009B58B342D6D01E00002E25
S1134B00C1D103B0F0BCBB46B246A946A046F0BD35
S1134B1031008D31FF31096819420DD143460198A6
S1134B201968904773685345E2D0A422009B520051
S1134B309E58E4E77460CDE7434618689047D4E78D
S1134B402C530000FEE7C046034B10B5002B02D0E7
S1134B500248FFF773FE10BD000000006D4800001E
S1134B6000A006400C0000000A003410696E737443
S1134B70616E6365203C2041525241595F53495A4A
S1134B804528735F6C7073636942617365732900B0
S1134B90647269766572732F66736C5F6C7073638D
S1134BA0692E630068616E646C6500006461746101
S1134BB000000000636F6E6669670000636F6E66D5
S1134BC069672D3E62617564526174655F427073FA
S1134BD00000000062617564526174655F42707325
S1134BE00000000072696E674275666665720000B7
S1134BF07866657200000000786665722D3E646117
S1134C00746153697A650000786665722D3E64614B
S1134C1074610000636F756E740000004C50534360
S1134C20495F476574496E7374616E636500000083
S1134C304C505343495F5472616E736665724765A5
S1134C4074527852696E674275666665724C656E19
S1134C50677468004C505343495F5472616E7366C5
S1134C6065724973527852696E67427566666572F9
S1134C7046756C6C000000004C505343495F52650C
S1134C8061644E6F6E426C6F636B696E6700000007
S1134C904C505343495F57726974654E6F6E426C52
S1134CA06F636B696E6700004C505343495F496EF4
S1134CB0697400004C505343495F4765744465660A
S1134CC061756C74436F6E66696700004C505343A2
S1134CD0495F5365744261756452617465000000F4
S1134CE04C505343495F5772697465426C6F636BF0
S1134CF0696E67004C505343495F52656164426C6E
S1134D006F636B696E6700004C505343495F547284
S1134D10616E7366657243726561746548616E6441
S1134D206C6500004C505343495F5472616E736666
S1134D306572537461727452696E67427566666512
S1134D40720000004C505343495F5472616E7366A5
S1134D50657253746F7052696E67427566666572E8
S1134D60000000004C505343495F5472616E7366F7
S1134D70657253656E644E6F6E426C6F636B696EE1
S1134D80670000004C505343495F5472616E736670
S1134D90657241626F727453656E64004C50534384
S1134DA0495F5472616E7366657247657453656ECC
S1134DB064436F756E7400004C505343495F5472E2
S1134DC0616E73666572526563656976654E6F6E72
S1134DD0426C6F636B696E67000000004C50534374
S1134DE0495F5472616E7366657241626F72745288
S1134DF065636569766500004C505343495F54729E
S1134E00616E73666572476574526563656976653C
S1134E10436F756E740000004C505343495F5472E5
S1134E20616E7366657248616E646C6549525100C7
S1134E300000000000B0064000C00640800D0E00D7
S1134E40000000000B0034100C003410696E737401
S1134E50616E6365203C2075617274417272617980
S1134E60436F756E74000000647269766572732F07
S1134E7066736C5F756172742E63000068616E64A2
S1134E806C650000636F6E6669670000636F6E6631
S1134E9069672D3E62617564526174655F42707327
S1134EA00000000062617564526174655F42707352
S1134EB000000000646174610000000072696E67A4
S1134EC042756666657200007866657200000000CF
S1134ED0786665722D3E6461746153697A65000079
S1134EE0786665722D3E646174610000636F756E4F
S1134EF074000000554152545F476574496E7374E1
S1134F00616E636500000000554152545F54726144
S1134F106E73666572476574527852696E6742753E
S1134F20666665724C656E6774680000554152543C
S1134F305F5472616E736665724973527852696E1A
S1134F406742756666657246756C6C0055415254CD
S1134F505F496E6974000000554152545F4765749F
S1134F6044656661756C74436F6E66696700000022
S1134F70554152545F53657442617564526174655E
S1134F8000000000554152545F57726974654E6FBA
S1134F906E426C6F636B696E67000000554152543A
S1134FA05F52656164426C6F636B696E67000000F9
S1134FB0554152545F526561644E6F6E426C6F632B
S1134FC06B696E6700000000554152545F54726172
S1134FD06E7366657243726561746548616E646C74
S1134FE065000000554152545F5472616E736665EA
S1134FF072537461727452696E6742756666657243
S113500000000000554152545F5472616E7366652E
S11350107253746F7052696E67427566666572008A
S1135020554152545F5472616E7366657253656E76
S1135030644E6F6E426C6F636B696E6700000000B4
S1135040554152545F5472616E7366657241626F6A
S1135050727453656E640000554152545F5472611A
S11350606E7366657247657453656E64436F756EDF
S113507074000000554152545F5472616E7366654A
S113508072526563656976654E6F6E426C6F636BD1
S1135090696E6700554152545F5472616E73666560
S11350A07241626F727452656365697665000000CF
S11350B0554152545F5472616E73666572476574EC
S11350C052656365697665436F756E740000000010
S11350D0554152545F5472616E7366657248616ED5
S11350E0646C654952510000415353455254204564
S11350F052524F52202220257320223A2066696C96
S1135100652022257322204C696E652022256422A5
S11351102066756E6374696F6E206E616D65202202
S1135120257322200A0000006465766963652021E6
S11351303D2044454255475F434F4E534F4C455FD6
S11351404445564943455F545950455F4E4F4E457B
S1135150000000007574696C69746965732F667367
S11351606C5F64656275675F636F6E736F6C652EE9
S113517063000000446267436F6E736F6C655F4940
S11351806E6974004E554C4C20213D20696F00001F
S11351907574696C69746965732F66736C5F696F84
S11351A02E630000494F5F496E6974006275662082
S11351B0213D204E554C4C007574696C69746965C9
S11351C0732F66736C5F6C6F672E630063682021B6
S11351D03D204E554C4C00004C4F475F5075736852
S11351E0000000004C4F475F526561644C696E6576
S11351F0000000004C4F475F526561644368617270
S113520061637465720000002A4100002A410000B5
S11352102A4100002A4100002A4100002A410000DE
S11352202A4100002A4100002A4100002A410000CE
S11352300E4200000E4200000E4200000E4200002A
S11352400E4200000E4200000E4200000E4200001A
S11352500E4200000E4200000E4200000E4200000A
S11352600E4200000E4200000E4200000E420000FA
S11352700E4200000E4200000E4200000E420000EA
S11352800E4200000E4200000E4200000E420000DA
S11352900E4200000E4200000E4200000E420000CA
S11352A00E4200000E420000B44100000E42000015
S11352B00E4200000E4200000E4200000E420000AA
S11352C00E4200000E4200000E4200000E4200009A
S11352D00E420000E4410000624100000E42000062
S11352E00E4200000E4200000E420000CC410000BD
S11352F00E4200000E4200000E4200000E4200006A
S11353000E4200009C4100000E4200000E420000CC
S11353100E420000FE4100000E42000084410000E5
S11353200E4200000E420000B441000010E0FF1FD6
S1135330F8B5C046F8BC08BC9E467047F8B5C046F0
S10B5340F8BC08BC9E4670474E
S10B534860B1FF7F01000000C9
S10B5350494B00008504000034
S107535859040000F0
S113535C000040010000000010E0FF1F00000000EE
S113536C00000000FCE2FF1F64E3FF1FCCE3FF1FFF
S113537C000000000000000000000000000000001D
S113538C000000000000000000000000000000000D
S113539C00000000000000000000000000000000FD
S11353AC00000000000000000000000000000000ED
S11353BC00000000000000000000000000000000DD
S11353CC00000000000000000000000000000000CD
S11353DC00000000000000000000000000000000BD
S11353EC00000000000000000000000000000000AD
S11353FC000000000000000000000000000000009D
S113540C000000000000000001000000000000008B
S113541C0E33CDAB34126DE6ECDE05000B00000050
S113542C000000000000000000000000000000006C
S113543C000000000000000000000000000000005C
S113544C000000000000000000000000000000004C
S113545C000000000000000000000000000000003C
S90308995B
