S00C00006D61696E2E7372656373
S1130000880E0020130500001105000011050000F2
S113001000000000000000000000000000000000DC
S113002000000000000000000000000011050000B6
S11300300000000000000000110500001105000090
S1130040130500001305000013050000130500004C
S11300500000000013050000130500001305000054
S1130060130500001305000013050000130500002C
S1130070130500001305000013050000130500001C
S1130080130500001305000013050000130500000C
S11300901305000013050000130500000000000014
S11300A013050000130500001305000013050000EC
S11300B013050000000000001305000013050000F4
S1130400FFFFFFFFFFFFFFFFFFFFFFFFFEFFFFFFF9
S113041010B582B004000122524201A9206803F001
S1130420FBFE0128F7D10199034801F09CF86420F0
S113043004F062FEEFE7C0462068000010B582B009
S1130440040005E00A4801F08EF8C82004F054FEC8
S113045006F030F9642105F07BFF019101220023AD
S1130460524201A9206803F07AFD0128EAD1ECE7A1
S1130470346800000300024A1068C3181360704710
S113048000E0FF1F00B585B003F056FB00F086F8CE
S113049000F05CF800220421052003F02FFD0390F6
S11304A000280FD0002301930433009303AB64228C
S11304B01049114804F014FB012807D00F4801F03B
S11304C052F8FEE70E4801F04EF8FEE700230193D0
S11304D00333009303AB64220A490B4804F000FB86
S11304E0012803D0094801F03EF8FEE704F094FC2B
S11304F0FEE7C046786800003D04000088680000FC
S113050058680000AC68000011040000BC680000DA
S1130510FEE710B5084B094A01E002CA02C30849C4
S11305208B42FAD3074B01E0002204C3064A9342EC
S1130530FAD3FFF7A7FF10BD00E0FF1F8872000089
S11305407CE0FF1F7CE0FF1F880A002010B50948EB
S113055009494358094A1A408023DB041343435092
S113056000F006FA0300E12103224902044800F0E6
S1130570DCFF10BD0070044004100000FFFFFFF317
S113058000A00640044A137838218B43C000084079
S1130590034313707047C0460040064010B5104A2C
S11305A0104B1149D150114C200000F013FC104B9A
S11305B0104A1A600020FFF7E5FF22000F320021E5
S11305C0002000F0E1FE00220021022000F0AAFA3F
S11305D02000143000F01CF9074B084A1A6010BDC3
S11305E0007004404410000000000310E0680000A4
S11305F07CE0FF1F00127A0014E0FF1F006CDC0295
S113060010B50D4A0D4B0E49D15002220121002094
S113061000F07AFE0B481C3000F0FAF80A482A234E
S1130620037002F071F8084BDB78042BFBD1074B05
S1130630074A1A6010BDC046007004404410000010
S113064000000310E068000000E0074014E0FF1F12
S113065000093D0010B582B00C001900009223007F
S11306600200024800F07FFF00BEFDE718690000A9
S113067082B0054B019300E0C046019B5A1E0192D3
S1130680002BF9D102B0704730750000074B9B79FD
S1130690DB0702D4064B18687047044B1A7A5208D9
S11306A007231340024A5068D840F5E7004006404B
S11306B004E0FF1F054B984204D9054B984203D828
S11306C0012000E0002070470220FCE7979800001A
S11306D000127A0010B5054B1868002800D010BD30
S11306E0034B044AEE210448FFF7B4FF7CE0FF1FEC
S11306F058690000F06900006469000010B5FFF754
S1130700E9FF002817D00F490A78D20807231340BD
S1130710D8404A78120992070DD0062B0CD003D882
S1130720052B0DD8400906E0072B03D10C2105F059
S11307309FFC00E0002010BD142105F099FCFAE7AD
S11307400020F8E70040064010B5054B9B79DB0616
S113075002D5044B186810BDFFF7D0FFFBE7C04675
S11307600040064004E0FF1F10B5FFF7B3FF10BDC3
S113077010B50A4B1B785BB2002B0CDA084B1868D7
S1130780002800D010BD074A6221074B1832FF3100
S11307900648FFF75FFF0020F4E7C046005006401C
S11307A07CE0FF1FF06900005869000064690000E4
S11307B010B5124B1B689B0C03241C40022C0ED05A
S11307C0032C18D0002C02D00024200010BDFFF709
S11307D0CFFF80231B029842F7D10400F5E7084BB2
S11307E05C68002CF1D1074A7621074B3032FF3187
S11307F00648FFF72FFFFA24A400E6E70070044040
S11308007CE0FF1FF0690000786900006469000063
S113081030B50D4B0D4A4168995001780C4C1A596A
S11308200C4D2A40090480256D0229400A431A51BF
S113083041781A68084802408904C0200003014036
S11308400A431A6030BDC0460070044044100000E2
S113085004100000FFFFFEFFFFFFF3FF30B50300AD
S113086010480268104C22400260002B0CD10F4942
S11308700F4A8B5823408B5001200A4A1168802369
S1130880DB020B43136030BD0A4A914208D00020BA
S1130890064C07496258084D2A4013436350ECE75D
S11308A00120F5E734800440FFFFFBFF00700440A3
S11308B004100000006CDC02FFFFFAFF10B5104BBF
S11308C05B789B0719D40E4B9B799B0601D50020BE
S11308D014E0FFF739FF002810D00949CA785209FB
S11308E003231A40C978C90953005B185B00054A01
S11308F0D31848229B5A584300E0002010BDC0463C
S113090000400640F069000010B5044B1B789B07BB
S113091001D4002010BDFFF7B9FEFBE700400640FC
S113092070B50E4B9B795B0601D4002070BDFFF7B8
S11309301BFF00280BD0094D29791F2421400131C8
S113094005F096FB6B79234018335843EEE7044ACD
S1130950044B583204490548FFF77CFE004006402A
S1130960F069000088690000610200006469000009
S113097010B50A4A0A4BD3581B0C01221100194026
S11309801A4203D0012904D0002010BDFFF796FFBE
S1130990FBE7FFF7C5FF4008F7E7C04600700440D7
S11309A00410000010B50F4B9A79920803231340EA
S11309B0022B11D008D8002B0BD0012B02D1FFF74A
S11309C065FE0DE000200BE0032B08D1FFF7A8FF24
S11309D006E0FFF773FF03E0FFF77CFE00E0002072
S11309E010BDC0460040064010B5FFF7DBFF044AC7
S11309F0044BD158090F013105F03AFB10BDC04634
S1130A00007004404410000070B5FFF7CBFF074DA1
S1130A10074C2959090F013105F02AFB2B591B0CEE
S1130A2007211940013105F023FB70BD007004401B
S1130A304410000070B5FFF7B5FF074D074C295966
S1130A40090F013105F014FB2B591B0C0721194028
S1130A50013105F00DFB70BD00700440441000002E
S1130A6010B5FFF79FFF044A044BD158090F013119
S1130A7005F0FEFA10BDC0460070044044100000AA
S1130A8010B5FFF761FE041E02D10024200010BD42
S1130A90FFF788FFC008A042F8D2F6E770B50C282B
S1130AA036D880001B4B1B589F46FA20800008E074
S1130AB0FFF778FF184A194BD158090F013105F097
S1130AC0D7FA70BDFFF76EFF134D144C2959090F67
S1130AD0013105F0CDFA2B591B0C072119400131C6
S1130AE005F0C6FAEDE7FFF743FFEAE7FFF760FE1C
S1130AF0E7E7FFF7C5FFE4E7FFF706FFE1E7FFF7E6
S1130B00DDFEDEE7FFF70CFFDBE7FFF731FED8E79A
S1130B100020D6E79C6900000070044044100000E7
S1130B200020704770B5204B9C79A40803252C4005
S1130B309D7901262E401D7A6D0807232B40934290
S1130B4019D0002E0ED0012C03D0174B1B789B0715
S1130B5008D5154D6B780126B3436B70124B9B7906
S1130B60DB07FBD4104D2B7A2F26B3435200213ED2
S1130B7032401A432A720C4A53780125AB430D4084
S1130B802B43537013780325AB4303431370012C99
S1130B9001D0830705D5044B9B79012213408B4276
S1130BA0F9D1002070BDC04600400640F0B5D646DD
S1130BB0474680B585B007000E00029203930023D8
S1130BC000930193304BC218304B9A4253D83049AA
S1130BD005F04EFAC4B22F492F4BF81805F048FA25
S1130BE0C3B29A4601235B42984613E0013C029A41
S1130BF01470183B039A13703EE00133DBB2372BB9
S1130C0006D82818801B404502D2804601930094E0
S1130C10013CE4B254451CD32100380005F028FA05
S1130C2005000100300005F023FAC3B21A00173A98
S1130C30D2B2202AECD8FF2210406843172BDCD90B
S1130C408642D3D0321A4245D7D2904601930094BB
S1130C50D3E74346013314D000994B1E029A137014
S1130C60019C2300183B039A1370380005F000FA26
S1130C704443200000E0002005B0C0BCBA46B046A2
S1130C80F0BD0020F8E7C046807BE1FF805CD7051B
S1130C9080841E0000093D00FF083D0010B50028B7
S1130CA017D043781F210B400E4A137153791F2428
S1130CB0A343847821400B435371137901780B4388
S1130CC040210B43DBB21371064B9B795B06FBD5CA
S1130CD010BD054AC121054B6C3289000448FFF759
S1130CE0B9FCC04600400640F06900009469000069
S1130CF064690000104A137A20218B431372002880
S1130D0003D153798B435371704701280DD00A4A9C
S1130D105378802149420B43DBB25370064A53791E
S1130D2020210B43DBB25371EEE7034A53787F2152
S1130D300B405370F2E7C046004006400F4B802240
S1130D409A71002805D11A005B797F210B405371F9
S1130D5070470A4B5B7BDBB201280BD04022134364
S1130D60DBB2064A53735379802149420B43DBB209
S1130D705371EDE740229343F3E7C0460040064039
S1130D800B4A9379DBB2127AD2070CD400209A076B
S1130D9001D5022210435AB2002A06DB5B0601D5B4
S1130DA04023184370470120F1E720221043F5E760
S1130DB000400640C30704D5054A137A20218B431B
S1130DC01372830602D5024B80229A717047C04683
S1130DD00040064070B504000068FFF76BFC2379FF
S1130DE0124A11780F25A9430B43137013785F211E
S1130DF00B40A1790B4313700D4A53783C218B436C
S1130E0000010C390840034360790343537063794C
S1130E10002B04D0054B1B785BB2002B00DB70BDAC
S1130E20034B9B799B07FBD5F9E7C046005006406E
S1130E3000400640044B00221A70044A53783C21B7
S1130E408B4353707047C046005006400040064034
S1130E50F8B5060017001D002F4BC2182F4B9A42FD
S1130E6052D8EB002E4A9B588B424FD8EA002C4BA9
S1130E709B185B688B424BD32A4B9B79DB0649D486
S1130E8005F0F6F8010042001218D3009B1A012D58
S1130E902BD0DAB22348C2721B0ADBB28372047A03
S1130EA041229443AA0140239C4613006246134006
S1130EB0234320221A43D2B294466022524213435F
S1130EC0DBB20372174C247A64B2002CFADB154BA4
S1130ED01B7A9B060FD4300005F0CAF83860012D48
S1130EE00ED0114B186000200FE042001218D300FE
S1130EF09B1ADB01CDE70B4B62461A720B4804E0E8
S1130F00094B5860002000E00948F8BD0948FCE797
S1130F100848FAE70848F8E700EE85FF00127A006F
S1130F20706A00000040064004E0FF1FD50700007F
S1130F30D2070000D3070000D407000010B51A4CF4
S1130F40A279920803231340A179090901200140E1
S1130F50627852080240A47964092040022B16D01A
S1130F6009D8002B0BD0012B03D1002A0DD101206D
S1130F7004E0082002E0032B0FD1072010BD002954
S1130F8001D00020FAE70320F8E70220F6E7002A60
S1130F9005D1002805D00620F0E70820EEE705205B
S1130FA0ECE70420EAE7C04600400640F8B5194DD6
S1130FB0EC78E4B2AB79DB062AD4EB7820267340D4
S1130FC0DBB2EB700126134D2B783B273B40042703
S1130FD03B43DBB22B700F4B9B79DB06FBD5002E1A
S1130FE001D00C4BDC701F232340C001C0B2490167
S1130FF06024214008431843064BD870054B9B7965
S11310009B089B07FAD1002A00D090470020F8BD26
S11310100026D8E700400640F0B5C64600B50C00EF
S11310209046214DEE78F6B2A979CA063AD5E97808
S113103020277940C9B2E97001211B4F3D78032272
S11310401540C00035321040284338707878420784
S113105003D5154880798007FBD513488079C006ED
S1131060FBD4002901D01049CE701F213140E40186
S1131070E4B24246520160200240144321430A4A2A
S1131080D170094AD278D2B28A42FAD1064A927908
S113109092089207FAD1002B00D09847002080BC18
S11310A0B846F0BD0021C8E700400640F8B51D4B26
S11310B0DD78EDB25C780226B4435C709B79DB0684
S11310C02DD4184CE37820267340DBB2E37001265C
S11310D0144C23783B273B4044273B43DBB223702B
S11310E0104B9B79DB06FBD5002E01D00D4BDD7038
S11310F00C4B9C79A40803232340012BF8D11E3305
S11311001D40C001C0B2490141331940084328437E
S1131110044BD870002A00D090470020F8BD002668
S1131120D6E7C0460040064070B522494A794024BB
S1131130A2434A711F4A92799206FBD41D4A517800
S11311400224A1435170D178C9B29279D2062ED526
S1131150184CE27820256A40D2B2E2700124154D81
S11311602A7803263240C0003536304010438022AE
S113117052420243D2B22A706A78520703D50D4A0A
S113118092799207FBD50B4A9279D206FBD4002CB4
S113119001D0084AD170074A9179890803220A408C
S11311A0022AF8D1002B00D09847002070BD0024FB
S11311B0D5E7C04600400640034A537802210B435A
S11311C0DBB253700020704700400640034A537856
S11311D002210B43DBB253700020704700400640ED
S11311E010B5081E29D0194A537802218B43537035
S11311F013783931194080235B420B43DBB21370FF
S1131200124B9B791C221340082BF9D10F4A5379B6
S113121040218B4353710D4B9B799B06FBD4FFF705
S11312203DFD0A4A537940210B43DBB25371074B0E
S11312309B799B06FBD5002010BD054AAE21054BCA
S11312401032C9000448FFF705FAC04600400640C2
S1131250706A00009469000064690000064A13780B
S11312603F210B401370044B9A79920803231340D7
S1131270032BF8D100207047004006400F4A5378F2
S113128002218B43537013783D31194080235B4214
S11312900B43DBB21370094B9A7992080323134072
S11312A0022BF8D1054A537940218B435371034BE8
S11312B09B799B06FBD400207047C0460040064043
S11312C00A4A537802218B43537013783D310B4003
S11312D040210B43DBB21370044B9A799208032329
S11312E01340012BF8D100207047C046004006404F
S11312F010B5FFF75BFE10BD10B5080011001A0011
S1131300029BFFF789FE10BD10B5030010001A0000
S1131310FFF708FC0B4A13783F210B4040210B4395
S1131320DBB21370074B9A79920803231340012B05
S1131330F8D1044A537802210B43DBB253700020E6
S113134010BDC046004006400E4A13783B211940A8
S113135080235B420B43DBB2137053785B0703D5E6
S1131360084B9B799B07FBD5064B9B791C221340AA
S1131370082BF9D1034A537802210B43DBB2537093
S1131380002070470040064010B50800111E0FD021
S1131390FFF726FF0A4A13783F210B401370084BCE
S11313A09A79920803231340032BF8D1002010BD2F
S11313B0044A054B243205490548FFF74BF9C0465A
S11313C000400640706A000094690000190600009D
S11313D06469000070B505003F4B9A7992080323B5
S11313E01340012B09D0EA78A9786878FFF79AFBB3
S11313F0FFF7A4FD0400002615E0374A53780221C4
S11314008B43537041798079344AFFF7CFFDEAE783
S11314106979A879314AFFF7C9FD0600002E55D134
S11314202B78A3424AD02A78E0002D4C2418A41823
S11314303823E45C072CF1D8A3002A49CB589F46F3
S11314406A79A9792879254BFFF7E6FD0600E5E7D7
S11314506979A8790022FFF729FE0600DEE76A7998
S1131460A97928790023FFF75FFE0600D6E7FFF786
S1131470A3FE0600D2E7FFF7A9FE0600CEE7063A70
S1131480D2B2012A10D914490B783F221A40802382
S11314905B421343DBB20B700F4B9A799208032320
S11314A01340022BF8D1B9E7E91D0020FFF798FE9D
S11314B00600B3E7FFF7D2FE0600AFE7EB795B0661
S11314C006D4054A137940218B431371300070BD53
S11314D0E81DFFF7E3FBF9E7004006407106000052
S11314E0706A0000D0690000F8B5CE46474680B562
S11314F007000C0091469846002506E023684A46FA
S1131500FA542368591C21600135454509DA2168DC
S11315104E1C7F2EF2D9380000F0E9F90023236035
S1131520ECE7C0BCB946B046F8BD10B50C00111EBE
S113153003D0220000F0B6F910BD034B034A693111
S11315400348FFF787F8C046E86A0000306B0000E4
S1131550146B000010B500F0B4F9002010BD10B5F4
S113156000F0B3F910BD0FB430B5A3B026AC20CC55
S1131570002301937C22002102A804F055FF21944A
S1131580074B01AA2100280001F0AEF9010001A8CF
S113159000F0ADF923B030BC08BC04B01847C04615
S11315A0E914000000B583B00190012101A800F006
S11315B09EF903B000BD0FB430B589B00CAC20CC9B
S11315C0002301931122002102A804F02DFF14210D
S11315D001A800F09FF907942200290001A801F056
S11315E080FA09B030BC08BC04B0184710B582B00A
S11315F06B46DC1D200000F0CBF9207802B010BD52
S113160010B5030008001400002907D0013B012B8A
S113161007D8110000F06BF9200010BD01204042F2
S1131620FBE701204042F8E710B503000800110071
S1131630002B02D100F06EF910BD01204042FBE7FF
S113164010B51C22014904F09DFE10BD406B000042
S113165010B500280AD04368002B04D04068FFF777
S1131660EFFF002010BD024B4360F7E70420F9E7C9
S113167084E0FF1F0378002B0AD04378002B1DD091
S11316800F4AD16880231B020B43D36000207047AC
S11316900B4AD3680B490B40D3604378002B06D127
S11316A0D1688023DB010B43D3600020EFE7044AB9
S11316B0D36805490B40D3600020E8E77820E6E7CB
S11316C0003000F0FF7FFFFFFFBFFFFF10B50400F5
S11316D00222002104F0A8FE064BDB681A0404D59C
S11316E0012323706370002010BD5B04FBD401232D
S11316F06370F8E7003000F010B5446801348021CD
S113170001230A22C9000148A04710BD0C3000F093
S113171010B5002901D0002010BDFFF7EDFFFAE756
S113172030B585B00D00140000280CD003791F4A91
S1131730137101681160032B21D0062B09D0012BF2
S113174007D005B030BD1A4B1A4AFF211A48FEF7DC
S113175081FF01A801F088FC0195144D220001A924
S1131760286801F0CDFB2A68D37808210B43DBB24B
S1131770D370D37804210B43DBB2D370E1E701A823
S113178000F07CFA0195094D220001A9286800F0B7
S1131790A1F92A68D37808210B43DBB2D370D3783C
S11317A004210B43DBB2D370CBE7C046C4E0FF1F78
S11317B05C6B00007C6B0000686B000010B50E4B86
S11317C01B79002B10D0032B10D0062B05D0012B36
S11317D003D0094B00221A7103E0074B186801F08B
S11317E027FC054B00221A71002010BD024B18681B
S11317F000F034FAF5E7C046C4E0FF1F10B50B4B08
S11318001B79012B03D0032B08D0002010BD074BFC
S1131810186801F0FDFD4306F9D5F6E7034B186897
S113182000F0F6FA4306F9D5EFE7C046C4E0FF1F1F
S113183010B50400154B1B79032B16D0062B03D0CF
S1131840012B01D0012010BD002A07D00F4B1868CE
S11318500A00210001F0FEFD0020F4E70B4B18689C
S11318600A00210001F004FEEDE7002A07D0074B2F
S113187018680A00210000F02FFC0020E3E7034B66
S113188018680A00210000F045FCDCE7C4E0FF1FF3
S113189010B500220121FFF7CBFF002800D110BDB5
S11318A00120FCE710B582B00C0011001A00009072
S11318B06B461C7100236846FFF732FF002002B01C
S11318C010BD10B5FFF77AFF10BD10B5FFF796FFF6
S11318D0002010BD10B50C1E07D0002805D0012231
S11318E0FFF7A6FF002800D00024200010BD10B58B
S11318F0002802D0FFF7EEFF10BD4021024B034A3F
S1131900FF310348FEF7A6FE846B0000B06B0000B5
S1131910906B0000F0B583B007000E00002801D0E2
S113192000240DE0174AB221174B0C324900174826
S1131930FEF790FE002C12D100232B70013C0134E1
S11319400194B4420BD23D192800FFF7A1FF0028EF
S113195014D12B780D2BEDD00A2BF0D1EAE7019BA3
S1131960B34207D0019E0136BF1900233B7020000B
S113197003B0F0BDFE1800233370F8E7012464427D
S1131980F5E7C046B06B0000846B0000906B00006C
S113199010B5002805D0FFF77BFF002809D10130DE
S11319A010BD054ACB21054B1C3249000448FEF703
S11319B051FE01204042F3E7B06B0000A46B00002D
S11319C0906B000010B5002901D0002308E0064BFD
S11319D0064AB4310648FEF73DFEC479CC540133BF
S11319E09342FAD310BDC046E06B0000786C00004F
S11319F0E86B000010B5002901D0002309E0064A75
S1131A00064B1832C2310648FEF724FECC5CC47182
S1131A1001339342FAD310BD786C0000E06B0000F0
S1131A20E86B000010B503000020002802D0002855
S1131A3005D110BD054A9342F9D00130F5E7044AB7
S1131A40044B303289210448FEF704FE00A006400E
S1131A50786C0000FC6B0000E86B000010B50028F7
S1131A600CD0428C92B2038C9BB29A420DD9038C57
S1131A70C26994466344408C181A10BD054A064B4B
S1131A80443290210548FEF7E5FD038C408C181A7A
S1131A90F3E7C046786C0000206C0000E86B00009F
S1131AA010B5041E07D0FFF7D9FFE369013B984244
S1131AB008D0002010BD044A044B6832A221044817
S1131AC0FEF7C8FD0120F5E7786C0000206C0000EB
S1131AD0E86B0000F0B5DE4657464E464546E0B595
S1131AE083B082468B469046002908D00F68002FA9
S1131AF00CD0B94604250023009301930EE0514A0B
S1131B00514B0C32D0215148FEF7A4FD4D4A504BA5
S1131B100C32D1214D48FEF79DFD0135202D1FD8F3
S1131B2029007943404604F0A3FA84B2002C00D182
S1131B30013429006143404604F09AFAC61B611C33
S1131B406943404604F094FA381AB04202D2013490
S1131B50A4B206004E45E0D8B14600950194DCE7F6
S1131B606421380004F084FA43001818484567D308
S1131B705046FFF757FF374A11688023DB000B43B9
S1131B8013605346DB780C2293435246D370009B78
S1131B90043B032B05D8D37A02221343DBB252460B
S1131BA0D37253469A7A1F218A43009B013BDBB2CE
S1131BB0134352469372937A8B4301990A0AD2B221
S1131BC0134352461370CBB253709178172291434A
S1131BD05B469B799B00133A13400B435A46127998
S1131BE0002A03D0134310221343DBB252469370EE
S1131BF01378202293435246137012785B465B7924
S1131C005B0120210B40134352461370D378DBB29F
S1131C105A46D279002A02D008221343DBB25A462C
S1131C20127A002A02D004221343DBB25246D37044
S1131C30002003B0F0BCBB46B246A946A046F0BDA6
S1131C400548F6E7F86C000094690000E86B0000B2
S1131C50286C000034800440B504000010B50379FA
S1131C605B06FCD5FFF7DEFE024A136802490B400F
S1131C70136010BD34800440FFFBFFFF10B5002843
S1131C8009D0E1235B020360002303714371837174
S1131C90C371037210BD044AA821044B18324900D1
S1131CA00348FEF7D7FCC046F86C000094690000B6
S1131CB0E86B0000F0B5DE464F464646C0B584B03A
S1131CC083460F1E914605D08846042400230393BF
S1131CD0029309E0324AAE21324B30324900324895
S1131CE0FEF7B8FC0134E4B2202C21D80194390069
S1131CF06143484604F0BCF985B2002D00D101359A
S1131D0029006143484604F0B3F9C61B691C6143CA
S1131D10484604F0ADF9381AB04202D20135ADB2EA
S1131D2006004645DED80395B046019B0293D9E7E9
S1131D306421380004F09CF94300181840452DD95B
S1131D405B46D978C9B2DB780C2293435A46D370E8
S1131D50029B043B032B05D8D37A02221343DBB244
S1131D605A46D3725B469A7A1F208243029B013BF8
S1131D70DBB213435A469372937A83430398020A5D
S1131D80D2B213435A461370C3B25370D1700020B9
S1131D9004B0E0BCBB46B146A846F0BD0348F7E733
S1131DA0F86C0000306C0000E86B0000B504000023
S1131DB0074B194003780B43DBB20370C3780A0A5C
S1131DC01343DBB2C3708379090C194381717047E3
S1131DD0C0F00F00064B194003788B430370C3789F
S1131DE00A0A9343C3708379090C8B438371704748
S1131DF0C0F00F0003000078DA78120210439B79D8
S1131E001B041843014B18407047C046C0F00F0034
S1131E100379407900021843704782B06B46DA1D9B
S1131E200023137013780133DBB213700B0403D552
S1131E30802343710A4B19404B0403D5402343715B
S1131E40084B1940CB0604D01F230B4003711F23FA
S1131E509943002902D1002002B070470248FBE7F1
S1131E60FF7FFFFFFFBFFFFFB4040000F8B50500CC
S1131E700C1E26D00379DB072AD42B799B0736D492
S1131E802B791B0744D42B79DB0602D5EB78DB06D0
S1131E904FD42B799B0602D5EB789B065FD42D2378
S1131EA0E35C042B03D02D23E35C052B03D1A3694E
S1131EB0002B00D1BFE02B795BB2002B00DAC9E024
S1131EC0F8BD7B4A7B4B44327B497C48FEF7C2FB1E
S1131ED02D230522CA540121FFF79FFF666A002EB5
S1131EE0CBD0A36A764A21002800B047C5E72D234A
S1131EF00422E25402212800FFF78FFF666A002EB5
S1131F00BED0A36A6F4A21002800B047B8E7EB7936
S1131F102B799B06FBD408212800FFF77EFF666A15
S1131F20002EB0D09722A36AD20021002800B04727
S1131F30A9E710212800FFF770FF2369002B08D0C0
S1131F40666A002EA5D0A36A5F4A21002800B04724
S1131F509FE7802149012800FFF73CFFF0E70126B5
S1131F60002E1ED02369002B1BD0E168012228001B
S1131F70FFF728FDE3680133E3602369013B236134
S1131F80013EF6B22369002BEAD12D330222E2543A
S1131F90676A002FE4D0A36A4C4A21002800B8479E
S1131FA0DEE7A369002B22D12369002B00D076E75A
S1131FB0A22109032800FFF70DFFAB789B0700D48B
S1131FC06DE7802149022800FFF704FF67E700233B
S1131FD06384238CEA79A169CA54238C0133E269AE
S1131FE0934225D0238C01339BB223843E00771E79
S1131FF0FFB2002E00D152E72000FFF751FD002868
S113200007D0666A002E04D0A36A314A2100280052
S1132010B0472000FFF744FD0028DAD0638C013379
S1132020E2699342D3D0638C01339BB26384D0E7DB
S113203000232384DAE7A22109032800FFF7CAFE5C
S1132040AB789B0700D436E7802149022800FFF7CC
S1132050C1FE30E7EB785BB2002B00DB30E70126F2
S1132060002E00D12CE76368002B00D128E72168FB
S113207001222800FFF7BEFC236801332360636854
S1132080013B6360013EF6B26368002BE8D12C3358
S11320900022E254EB787F321340EB70676A002F22
S11320A0DED0A36A0B4A21002800B847D8E7C0460F
S11320B0F86C0000206C00005E030000E86B000078
S11320C0BB040000BA040000BC040000B304000018
S11320D0B7040000B204000010B500290ED1094A6B
S11320E0094B5C3209490A48FEF7B4FA03795BB23A
S11320F0002BFBDA0B78C37122000131541E002A35
S1132100F4D110BDF86C0000E06B00000502000083
S1132110E86B000070B504000D1E16D0561E002A90
S113212033D023799B062BD42000FFF771FE0307DD
S113213013D4430718D483071CD4C307F1D5012152
S11321402000FFF76AFE12480DE0124A8521124B67
S1132150703289001148FEF77DFA08212000FFF74C
S11321605CFE9720C00070BD04212000FFF755FEDF
S11321700B48F8E702212000FFF74FFE0948F2E779
S1132180E3792B7032000135C8E70020EBE7C04645
S1132190BB040000F86C0000E06B0000E86B00007A
S11321A0B9040000BA040000F8B507000C001600DA
S11321B01D00002919D030220021200004F034F938
S11321C02D230222E254013B0022E2546662A562FE
S11321D03800FFF727FC084B8000C450074A5A60B8
S11321E0074B802252011A60F8BD064A064B04329E
S11321F006490748FEF72EFACCE0FF1F6D1E0000CB
S113220000E100E0786D0000206C00004102000055
S1132210E86B000010B5040000290ED0002A13D08A
S11322208A61CB6100230B844B84A2210903FFF74D
S1132230BFFDA3789B070ED410BD0A4A0A4B203277
S11322400A490B48FEF706FA064A0A4B20320A49A5
S11322500748FEF7FFF9802149022000FFF7A8FD97
S1132260EAE7C046786D0000206C00005E020000C2
S1132270E86B0000406C00005F02000070B50500D0
S11322800C1E09D02D23CB5C022B0CD00023A361A0
S1132290E3612384638470BD094A0A4B40320A49CE
S11322A00A48FEF7D7F9A2210903FFF793FDAB789B
S11322B09B07EBD5802149022800FFF78BFDE5E75A
S11322C0786D0000206C000073020000E86B0000D1
S11322D010B5002918D0002A1DD05368002B21D036
S11322E01368002B25D02C240C5D012C29D00B6005
S11322F053684B608B602C230122CA54802109024D
S1132300FFF756FD002010BD0F4A104B60321049F4
S11323101048FEF79FF90C4A0F4B60320F490D48E5
S1132320FEF798F9084A0E4B60320E490948FEF749
S113233091F9054AA3210C4B603289000548FEF748
S113234089F99620C000DEE7786D0000206C00005B
S113235089020000E86B00004C6C00008A02000057
S1132360546C00008B020000646C000010B50C1E5D
S113237008D0C0210902FFF72DFD002363602C2241
S1132380A35410BD024B034A03490448FEF762F903
S1132390206C0000F86D0000A7020000E86B00004C
S11323A010B500290BD0002A10D02C23CB5C002BB5
S11323B013D08B6849685B1A1360002010BD084A6B
S11323C0084B183208490948FEF744F9044A084BF7
S11323D0183208490548FEF73DF90620EEE7C046E5
S11323E0F86D0000206C0000B1020000E86B0000F2
S11323F0706C0000B2020000F8B5CE46474680B5C6
S113240080460C0016009946002920D0002A25D0C9
S11324105768002F2AD01368002B2ED02D228A5CF7
S1132420032A00D181E08A69002A67D080218901CA
S1132430FFF7D0FC2000FFF711FB051E3CD038004D
S1132440AF4200D928003F1A0025002222E0394A71
S1132450394B343239493A48FEF7FCF8354AB12150
S1132460384B343289003648FEF7F4F8314A364B9B
S1132470343236493248FEF7EDF82E4A344B3432C2
S113248034492F48FEF7E6F8638C01339BB263842A
S11324900132654682420FD2638C9BB2691C8C4622
S11324A0A169CB5C31684B55618C0131E369994278
S11324B0EAD100236384EBE7002F07D033685B196C
S11324C0E360276167612D230322E254802189019F
S11324D04046FFF76DFC002F07D1666A002E04D03A
S11324E0A36A1D4A21004046B0474B46002B1ED02C
S11324F01D600020C0BCB946B046F8BDCB600F617A
S11325004F612D230322CA54A3210903FFF750FC72
S113251043469B789B0701D40025E6E780214902C6
S11325204046FFF745FC0025DFE70C48E2E70020C2
S1132530E0E7C046F86D0000206C0000C302000014
S1132540E86B00004C6C0000546C0000C5020000F5
S1132550646C0000C6020000B3040000B104000073
S113256070B505000C1E08D08B69002B0CD000231D
S113257023612D330222E25470BD0A4A0A4B5832B9
S11325800A490B48FEF766F8A3210903FFF722FC6A
S1132590AB789B07EBD5802149022800FFF71AFC92
S11325A0E5E7C046F86D0000206C00003A03000027
S11325B0E86B000010B500290BD0002A10D02D23A1
S11325C0CB5C022B14D04B6909695B1A13600020A1
S11325D010BD084A084B743208490948FEF73AF816
S11325E0044AD421074B743289000548FEF732F8B7
S11325F00620EDE7F86D0000206C00004F0300009A
S1132600E86B0000706C0000704710B5024B19684D
S11326105B680248984710BDCCE0FF1F00A006404D
S113262000B583B001A8074B1B880380EFF3108229
S113263072B6054B1A60BFF36F8FFFF71BF803B038
S113264000BDC0468C6E0000D4E0FF1F00B583B00F
S113265000236A461371537101A8FFF70BF8044B6A
S11326601B6883F31088BFF36F8F03B000BDC046AF
S1132670D4E0FF1FEFF3108272B6024B1A60BFF36F
S11326806F8F7047D4E0FF1F034B1B6883F31088E0
S1132690BFF36F8F7047C046D4E0FF1F43786022BA
S11326A09343437000207047054A136904218B4308
S11326B01361BFF34F8F30BFBFF36F8F002070479C
S11326C000ED00E083783F2213408901C9B2194329
S11326D081704378383A93434370094A136904215B
S11326E00B4313614378BFF34F8F30BFBFF36F8F3A
S11326F043781B0701D4002070470248FCE7C0461A
S113270000ED00E03C0F0000437860229343402238
S11327101343DBB2437000207047064A1369042157
S11327208B431361BFF34F8F30BFBFF36F8F002014
S11327307047C04600ED00E043780722934302222D
S11327401343DBB24370094A136904210B43136139
S11327504378BFF34F8F30BFBFF36F8F43781B07AE
S113276001D4002070470248FCE7C04600ED00E0B9
S11327703C0F000043780722934303221343DBB248
S11327804370094A136904210B4313614378BFF36F
S11327904F8F30BFBFF36F8F43781B0701D40020E6
S11327A070470248FCE7C04600ED00E03C0F000023
S11327B010B50B78002B06D14B78002B20D08378F2
S11327C020229343837043780722934304242343B2
S11327D0DBB24370837893431A000B7813438370FE
S11327E00B4A136904210B4313614378BFF34F8FE2
S11327F030BFBFF36F8F43781B0707D4002010BD91
S1132800837820221343DBB28370DCE70148F6E7C8
S113281000ED00E03C0F0000020003681B7800207C
S113282005E00130C0B21368591C11605B78202B9D
S1132830F7D0092BF5D00A2BF3D00D2BF1D00B2BAD
S1132840EFD00C2BEDD07047F0B5C64600B582B082
S113285014001E0008AB1B789846451C0023037027
S1132860002A21D00F68002F01D000240DE030335E
S113287043700124200002B080BCB846F0BD302370
S1132880591A297001340135019F002FF2D031000B
S1132890380003F077FC01903100380003F058FD54
S11328A00029ECDB3031ECE70F68002F0DD1302329
S11328B043700124DEE74246002A13D04122D31894
S11328C00A3B2B70013401350700002FD2D03100B0
S11328D0380003F0CDFB03007343FB1A092BEAD83D
S11328E03033EEE76122EAE7F0B5DE4657464E465E
S11328F04546E0B591B00700039191461D000023C1
S11329000693049398460024A8E00026002000E0E3
S1132910012000280DD17A1C79780B00303B092B5B
S1132920F6D8B3009B195B00CB18303B1E00170090
S1132930EFE7791C7B782E2B22D03A00571C527873
S11329409246642A27D0692A25D0662A23D0462AAB
S113295021D0782A1FD0582A1DD06F2A1BD0622A72
S113296019D0702A17D0752A15D0632A00D18BE0AC
S1132970732A00D191E0012306A94846A8476CE0D8
S113298000270A00002FD9D1511C5378303B092B62
S1132990F7D90700F6E75346642B09D0692B07D013
S11329A05346582B15D0782B13D001239B4625E092
S11329B0039B1A1D03921B6805930123009309339B
S11329C0012205A907A8FFF73FFF804607AC44444E
S11329D0E6E75346782B28D001239B46039B1A1D18
S11329E003921B6804935B4600931023002204A9FE
S11329F007A8FFF729FF804607AC444453466F2BD2
S1132A0005D0622B03D0702B01D0752B1DD1039BF5
S1132A101A1D03921B68049353466F2B0AD0622B32
S1132A2027D0702B04D00A2305E000239B46D5E76A
S1132A30603B00E008235A460092002204A907A83C
S1132A40FFF702FF804607AC44444346F31A2022B2
S1132A5006A94846A847002C12D101373A78131E1C
S1132A6037D0252B00D150E7012306A94846A847B3
S1132A70F3E70223DFE7013C012306A94846A84700
S1132A802278002AF7D1E8E7039B1A1D03921A78EB
S1132A90012306A94846A847DFE7039B1A1D0392B2
S1132AA01B689A46002BD8D0180003F059FE8046C4
S1132AB0331A202206A94846A84705E001239C466C
S1132AC0E24406A94846A84753461A78002AF5D195
S1132AD0C3E7069811B0F0BCBB46B246A946A0466F
S1132AE0F0BDF0B5C64600B584B0019203910290E2
S1132AF00378002B00D156E100250FE002A8FFF770
S1132B008BFE0BE05A1C0392029908785B7898427A
S1132B1000D046E10131029101320392039B1B78FC
S1132B20002B00D13DE1029B1B78002B00D138E142
S1132B3003A8FFF771FE041EE0D1039B1A78252A2F
S1132B40E0D15A78252ADDD001330393070000260B
S1132B50039A1378002B4ED07C2121424BD1303B79
S1132B60D9B2482942D88B009049CB589F46002FB0
S1132B700FD1BB00DB195B00039A11785B18303B63
S1132B801F00531C03935378303BDBB2092BF0D95D
S1132B90DEE728002BE0864B1C43013203920A2611
S1132BA0D6E720231C43013203920A26D0E72023D0
S1132BB01C43013203920826CAE720231C43013236
S1132BC003921026C4E720231C43013203920026FB
S1132BD0BEE704231C43002F00D1013701320392C6
S1132BE0B6E708231C4301320392B1E7280004B07E
S1132BF080BCB846F0BD7C221300234022420AD098
S1132C00002F00D16337082B28D0202B58D0042B59
S1132C1003D02800EBE72800E9E7029E019B1A1D78
S1132C200192186802E0013302930F00791E002F0D
S1132C300BD0029B1A78002A07D0A207F3D45A1C9F
S1132C4002921B7803700130EFE7A30700D565E714
S1132C50029BB34200D161E701355FE702A8FFF7A9
S1132C60DBFD029E019B1A1D0192186805E0531CAE
S1132C7002931378037001300F00791E002F14D0D3
S1132C80029A1378002B10D0202B0ED0092B0CD0D5
S1132C900A2B0AD00D2B08D00B2B06D00C2B04D0FA
S1132CA0A307E4D501320292E6E7A30700D535E78E
S1132CB0029BB34200D131E70023037001352DE7B5
S1132CC002A8FFF7A9FD029B002E01D0102E02D10D
S1132CD01A78302A12D0002E03D11B78302B1BD047
S1132CE00A26029B1A782B2A18D02D2A41D10133A7
S1132CF00293013F01235B4298463CE05A78782ACC
S1132D0001D0582AE7D1002F04D09A1C0292023F26
S1132D101026E0E71026DEE70836E2E701330293E7
S1132D20013F0123984626E00B00413BDBB2052B13
S1132D301DD83739CBB29E421FD97043C018013217
S1132D4002926746029A1178002916D07B1E9C468F
S1132D50002F12D00B00303BDBB2092BEBD90B0058
S1132D60613BDBB2052BDFD85739CBB2E3E7330045
S1132D70E1E7012398460020E4E743465843A307CC
S1132D8000D5CBE6A30406D5019B1A1D01921B684E
S1132D9018600135C2E6019B1A1D01921B68186078
S1132DA0F7E7280023E70120404220E7906E000067
S1132DB02020000010B5074B1868C82103F058F90B
S1132DC00138054B1860054B00221A60044B07328A
S1132DD01A6010BD14E0FF1F14E000E018E000E0EA
S1132DE010E000E010B5002901D0002308E0064BF4
S1132DF0064A07490748FDF72DFCC479CC54013332
S1132E009342FAD310BDC046E06B0000E46F0000AB
S1132E1079020000B46F000010B5002901D000232E
S1132E2009E0064A064B183206490748FDF712FC2A
S1132E30CC5CC47101339342FAD310BDE46F00003B
S1132E40E06B000041020000B46F000010B5010007
S1132E50002000E00130022805D88200074B9B18AF
S1132E601B6B8B42F6D1022800D810BD034A044BD9
S1132E703C32A1210348FDF7EDFBC046E46F00009E
S1132E80C86F0000B46F000010B500280CD0428C4D
S1132E9092B2038C9BB29A420DD9038CC2699446B8
S1132EA06344408C181A10BD054A064B5032A821C1
S1132EB00548FDF7CFFB038C408C181AF3E7C04696
S1132EC0E46F0000206C0000B46F000010B5041E15
S1132ED007D0FFF7D9FFE369013B984208D00020EF
S1132EE010BD044A044B7432BA210448FDF7B2FB06
S1132EF00120F5E7E46F0000206C0000B46F0000CF
S1132F00F8B5CE46474680B505000E1E904600D162
S1132F1072E00F68002F00D175E03901100003F052
S1132F20A7F884B2002C00D101342101404603F0FB
S1132F309FF8C31B9946611C0901404603F098F8A9
S1132F40381A484502D20134A4B2814664213800BB
S1132F5003F08EF84300181848455BD32800FFF7A8
S1132F6075FF83002C48C018036A1A0C2B498C4641
S1132F70624411681B041B0C0120984003000B439E
S1132F801360EB780C229343EB702B78133293434A
S1132F90220A1343DBB22B70E4B26C70AB781722B5
S1132FA093431A00B3799B0004210B4013433279F5
S1132FB0002A03D0134310221343DBB2AB702B78E7
S1132FC0202293437279520120210A4013432B702B
S1132FD0EB78DBB2F279002A02D008221343DBB289
S1132FE0327A002A02D004221343DBB2EB700020B1
S1132FF0C0BCB946B046F8BD074A094B1432CC21CF
S11330000848FDF727FB044A074B1432CD21054835
S1133010FDF720FB0548EBE76470000000700440F6
S113302094690000B46F0000286C0000F5030000F0
S113303010B503795B06FCD50023C370FFF706FFC8
S113304083000748C018036A1A0C06498C46624478
S113305011681B041B0C012098408143116010BDB2
S1133060647000000070044010B5002809D0E1230A
S11330705B0203600023037143718371C3710372A4
S113308010BD044A6C21044B2C32FF310348FDF778
S1133090E1FAC0466470000094690000B46F000057
S11330A0F0B5C64600B506000D001700002934D05F
S11330B00901100002F0DCFF84B2002C00D10134BD
S11330C02101380002F0D4FF431B9846611C09011A
S11330D0380002F0CDFF281A404502D20134A4B2D0
S11330E080466421280002F0C3FF430018184045BD
S11330F01BD9F278D2B2F3780C218B43F370337876
S113310013318B43210A0B43DBB23370E4B2747086
S1133110F270002080BCB846F0BD054A8221054B00
S11331204432FF310448FDF795FA0448F2E7C046FB
S113313064700000306C0000B46F0000F503000000
S1133140074B194003780B43DBB20370C3780A0AB8
S11331501343DBB2C3708379090C1943817170473F
S1133160C0F00F00064B194003788B430370C378FB
S11331700A0A9343C3708379090C8B4383717047A4
S1133180C0F00F00F8B504000D1E26D003799B078C
S11331902BD42379DB073AD423791B074AD4237928
S11331A0DB0602D5E378DB0651D423799B0602D5EE
S11331B0E3789B0663D42D23EB5C042B03D02D23EF
S11331C0EB5C052B03D1AB69002B00D1C4E0237960
S11331D05BB2002B00DACEE0F8BD7D4A7D4B58325D
S11331E07D497E48FDF736FAE37923799B06FBD4C3
S11331F02D230422EA5400232B616E6A002EC8D0CA
S1133200AB6A774A29002000B047C2E7E379237903
S11332109B06FBD42D230522EA5400232B616E6AFE
S1133220002EB9D0F832AB6A920029002000B047D2
S1133230B2E7E37923799B06FBD46E6A002EAED005
S1133240AB6A684A29002000B047A8E7E3792379EC
S1133250DB06FBD42B69002B0BD06E6A002EA4D0A6
S11332602B69002BA1D0AB6A5F4A29002000B0472C
S11332709BE7802149012000FFF774FFEDE7012659
S1133280002E1ED02B69002B1BD0E96801222000E0
S1133290FFF7A8FDEB680133EB602B69013B2B6161
S11332A0013EF6B22B69002BEAD12D330222EA54F7
S11332B06F6A002FE4D0AB6A4C4A29002000B8475B
S11332C0DEE7AB69002B22D12B69002B00D072E71B
S11332D0A22109032000FFF745FFA3789B0700D430
S11332E069E7802149022000FFF73CFF63E70023E0
S11332F06B842B8CE279A969CA542B8C0133EA695B
S1133300934226D02B8C01339BB22B843E00771E34
S1133310FFB2002E00D14EE72800FFF7D7FD0028AA
S113332008D06E6A002E05D0FC22AB6A92002900F8
S11333302000B0472800FFF7C9FD0028D9D06B8CC6
S11333400133EA699342D2D06B8C01339BB26B8414
S1133350CFE700232B84D9E7A32109032000FFF73B
S113336001FFA3789B0700D431E7802149022000A4
S1133370FFF7F8FE2BE7E3785BB2002B00DB2BE7CB
S11333800126002E00D127E76B68002B00D123E72C
S1133390296801222000FFF73FFD2B6801332B60D1
S11333A06B68013B6B60013EF6B26B68002BE8D1A1
S11333B02C330022EA54E3787F321340E3706F6ABF
S11333C0002FDED0AB6A0A4A29002000B847D8E7AC
S11333D064700000206C0000AA030000B46F0000B9
S11333E0F3030000F1030000F6030000EB03000008
S11333F0EA03000003000078DA78120210439B7994
S11334001B041843014B18407047C046C0F00F001E
S11334100379407900021843704710B50C004379D2
S11334203F211940230ADBB20B4343711723234284
S113343001D00379C379230701D50379C379FFF751
S1133440E7FF044201D1002010BD0148FCE7C0465B
S1133450EE03000010B507E003795BB2002BFBDA42
S11334600B78C37122000131541E002AF4D110BD1F
S113347070B504000D1E13D0561E002A1CD02379EB
S11334809B0614D42000FFF7C3FF030716D4430799
S113349016D4830716D4C307F1D5FD2080000EE0AF
S11334A0094A0A4B70320A490A48FDF7D3F8E3790E
S11334B02B7032000135DFE7002000E0064870BDC4
S11334C00648FCE70648FAE764700000E06B000079
S11334D04F020000B46F0000F1030000F20300008B
S11334E0F3030000F8B507000C0016001D000029C6
S11334F025D030220021200002F096FF2D23022245
S1133500E254013B0022E2546662A5623800FFF7F0
S11335109DFC0E4B8200D4500D4ADA600D4B1818F6
S11335202023C3561A00803208D0002B06DB1F224A
S113353013401E3A9A401300074A1360F8BD054A27
S1133540064B043206490748FDF784F8D8E0FF1F0C
S113355085310000E470000000E100E0206C000010
S11335608A020000B46F000010B5040000290ED0D8
S1133570002A13D08A61CB6100230B844B84A221DF
S11335800903FFF7DDFDA3789B070ED410BD0A4A9B
S11335900A4B24320A490B48FDF75CF8064A0A4BE9
S11335A024320A490748FDF755F8802149022000D2
S11335B0FFF7C6FDEAE7C046E4700000206C000097
S11335C0A6020000B46F0000406C0000A7020000D7
S11335D070B505000C1E09D02D23CB5C022B0CD03A
S11335E00023A361E3612384638470BD094A0A4B09
S11335F044320A490A48FDF72DF8A2210903FFF7CE
S1133600B1FDAB789B07EBD5802149022800FFF779
S1133610A9FDE5E7E4700000206C0000BB02000097
S1133620B46F000010B5002918D0002A1ED05368CA
S1133630002B22D01368002B26D02C240C5D012CE7
S113364029D00B6053684B608B602C230122CA5431
S113365080210902FFF774FD002010BD0F4AB43128
S11336600F4B603289000F48FCF7F4FF0B4A0E4BF6
S113367060320E490B48FCF7EDFF084A0C4B6032F0
S11336800C490848FCF7E6FF044A0B4B60320B492F
S11336900448FCF7DFFFFA208000DEE7E470000056
S11336A0206C0000B46F00004C6C0000D1020000DC
S11336B0546C0000D2020000646C0000D3020000CD
S11336C010B50C1E08D0C0210902FFF74BFD0023E2
S11336D063602C22A35410BD024B034A03490448DF
S11336E0FCF7B8FF206C000064710000EE020000DB
S11336F0B46F000010B500290BD0002A11D02C2380
S1133700CB5C002B14D08B6849685B1A13600020D3
S113371010BD084ABE31084B183289000748FCF72F
S113372099FF044A064B183206490448FCF792FFF5
S11337300620EDE764710000206C0000B46F000007
S1133740706C0000F9020000F8B5CE46474680B51B
S113375080460C0016009946002920D0002A25D066
S11337601368002B29D05768002F2ED02D228A5C95
S1133770032A00D181E08A69002A67D08021890167
S1133780FFF7F0FC2000FFF77FFB051E3CD038005C
S1133790AF4200D928003F1A0025002222E0394A0E
S11337A0394B343239493A48FCF754FF354A394BDE
S11337B0343239493648FCF74DFF324AC321374B7E
S11337C0343289003248FCF745FF2E4A344B3432F8
S11337D034492F48FCF73EFF638C01339BB263846A
S11337E00132654682420FD2638C9BB2691C8C46BF
S11337F0A169CB5C31684B55618C0131E369994215
S1133800EAD100236384EBE7002F07D033685B1908
S1133810E360276167612D230322E254802189013B
S11338204046FFF78DFC002F07D1666A002E04D0B6
S1133830A36A1D4A21004046B0474B46002B1ED0C8
S11338401D600020C0BCB946B046F8BDCB600F6116
S11338504F612D230322CA54A3210903FFF770FCEF
S113386043469B789B0701D40025E6E78021490263
S11338704046FFF765FC0025DFE70C48E2E700203F
S1133880E0E7C04664710000206C00000A030000F9
S1133890B46F00004C6C00000B030000646C00006B
S11338A0546C00000D030000EB030000E90300006A
S11338B070B505000C1E08D08B69002B0CD00023BA
S11338C023612D330222E25470BD0A4A0A4B54325A
S11338D00A490B48FCF7BEFEA3210903FFF742FC8B
S11338E0AB789B07EBD5802149022800FFF73AFC0F
S11338F0E5E7C04664710000206C0000810300000D
S1133900B46F000010B500290BD0002A10D02D236D
S1133910CB5C022B13D04B6909695B1A136000203E
S113392010BD084A084B703208490948FCF792FE5A
S1133930044A084B703208490548FCF78BFE062000
S1133940EEE7C04664710000206C0000960300009E
S1133950B46F0000706C000097030000704710B54E
S1133960024B5968DB680248984710BDD8E0FF1F36
S113397000B0064010B5FFF7F2FF10BD10B5034BC1
S11339809968DB680248984710BDC046D8E0FF1F1D
S113399000C0064010B5FFF7F1FF10BD064A07232B
S11339A09A43064B1A60002058600549D960986014
S11339B0516008331360704704E1FF1FE8E0FF1F04
S11339C0F827000070B5040001F05EFA224B1B6971
S11339D0002B0ED0002C05D00834630702D0072337
S11339E09C430834631E1D4A934231D81A490B681C
S11339F007E0FFF7D3FF184B01221A61EAE7190029
S1133A0013005A68A24202D21A68002AF7D1124A55
S1133A10083293421ED00D6808351A680A605A6845
S1133A20121B102A0BD91E1972605C6070680A4A56
S1133A301100126854688442FAD332600E605B68E5
S1133A40074A1168CB1A136001F0B4FA280070BD5C
S1133A500025F9E70025F7E7E8E0FF1FF627000057
S1133A600CE0FF1F70B5041E15D00500083D01F0E1
S1133A700BFA6968084B1A001B6858688842FAD325
S1133A80083C236015606368044A11688C466344EB
S1133A90136001F08FFA70BDE8E0FF1F0CE0FF1F18
S1133AA0014B18687047C0460CE0FF1F7047C046C2
S1133AB0030008334360012252428260C360036101
S1133AC000230360704700230361704743684B6021
S1133AD09A688A60516099600861036801330360E1
S1133AE0704730B50C68631C10D0030008331A000B
S1133AF05B681D68A542FAD953684B6099608A6077
S1133B005160086103680133036030BD0269F3E763
S1133B100369416882688A60416851605A688242D8
S1133B2006D0002202611A68013A1A6018687047C8
S1133B3082685A60F5E70000074A116880239B01F8
S1133B400B43136005494B6F054A1A4080235B0001
S1133B5013434B677047C0463880044000D004408C
S1133B60FFF8FFFF10B5FFF7E7FF10BD00000000EE
S1133B7082B000230193064B1B68013301D072B657
S1133B80FEE772B6019B002BFCD002B07047C04622
S1133B9010E0FF1F0A4A13681868203080F3098870
S1133BA0022080F31488BFF36F8F3FBCAE4608BC7D
S1133BB004BC62B61847C046C046C046C046C046AC
S1133BC0140A002010B5031F802464041C60043B05
S1133BD01960043B02491960143B1A60403810BD57
S1133BE0713B0000704710B50B4B1968FF2212049B
S1133BF00A431A601968FF2212060A431A60FFF783
S1133C00D9F8064B00221A60FFF7C4FF01F08CFAC2
S1133C10FFF7AEFF002010BD20ED00E010E0FF1F15
S1133C20044B1A68FA239B009A4201D072B6FEE74D
S1133C307047C04610E0FF1F044B802252051A60F3
S1133C40BFF34F8FBFF36F8F7047C04604ED00E0A2
S1133C5072B6044A136801331360BFF34F8FBFF386
S1133C606F8F704710E0FF1F064B1B68002B01D1BC
S1133C7072B6FEE7013B034A1360002B00D162B623
S1133C807047C04610E0FF1FEFF3108072B6704714
S1133C9080F310887047EFF30980114B1A682038BD
S1133CA01060F0C044464D4656465F46F0C008B525
S1133CB072B601F039FA62B60CBC116808681030AB
S1133CC0F0C8A046A946B246BB4680F3098820380E
S1133CD0F0C81847C046C046C046C046C046C046A5
S1133CE0140A002010B5FFF7CFFF040001F0F4F828
S1133CF0002803D0034B802252051A602000FFF7EE
S1133D00C7FF10BD04ED00E00300406A002803D0A3
S1133D101B6B1B680520C01A704710B50400FFF721
S1133D2097FFA26BE36B9A4204D00024FFF79CFF39
S1133D30200010BD0124F9E710B50400FFF788FF47
S1133D40A36B002B04D10124FFF78EFF200010BDCC
S1133D500024F9E770B504001500866B026C002A94
S1133D600CD10368002B03D000200136A66370BD7C
S1133D70406801F0CFFC00236360F6E7002D0ED10C
S1133D80806802F0FFFAA368226C94466344A3603F
S1133D90626893421BD32368A3602800E5E7C068E8
S1133DA002F0F0FA236C5A42E168CB1AE36021680E
S1133DB08B4203D263689C466244E260022D01D0C8
S1133DC00020D2E7002E04D0013E0020CDE72800D9
S1133DD0CBE70020C9E710B5030008001A6C002ADD
S1133DE00AD0D9688918D9605C68A14201D31968DE
S1133DF0D960D96802F0C6FA10BD70B50500FFF7A6
S1133E0027FF4523EC5C64B201E0013C64B2002C62
S1133E100BDD6B6A002B08D02800243001F05EFA19
S1133E200028F2D001F01AFBEFE74523FF22EA5401
S1133E30FFF71AFFFFF70CFF4423EC5C64B201E0C8
S1133E40013C64B2002C0BDD2B69002B08D0280048
S1133E50103001F043FA0028F2D001F0FFFAEFE746
S1133E604423FF22EA54FFF7FFFE70BD70B504003F
S1133E700D0000281DD0FFF7EBFE2268E36B206CD9
S1133E8001005943511861600021A163A260013B04
S1133E904343D318E360FF234422A3540132A354C1
S1133EA0002D11D12369002B05D1FFF7DDFE012080
S1133EB070BD72B6FEE72000103001F00FFA002842
S1133EC0F3D0FFF7B9FEF0E720001030FFF7F0FD64
S1133ED020002430FFF7ECFDE7E770B51D00049CDB
S1133EE0002909D12460E063216401212000FFF747
S1133EF0BDFF4C23E55470BD2260F4E7F0B583B0F8
S1133F0004000D001600002801D172B6FEE7002956
S1133F1011D0080060435030FFF754FD071E07D04E
S1133F20020050320090330029002000FFF7D5FF33
S1133F30380003B0F0BD0800EDE710B50C00002810
S1133F4001D172B6FEE7884201D272B6FEE70222C0
S1133F500021FFF7D3FF002800D0846310BDF0B523
S1133F6085B004000F0001921D00002808D000292C
S1133F7008D0022D0BD1E36B012B08D072B6FEE7FB
S1133F8072B6FEE7036C002BF3D072B6FEE701F0C5
S1133F9065FB061E04D1019B002B34D072B6FEE7EC
S1133FA0002630E02A0039002000FFF7D3FE636AC0
S1133FB0002B06D100280DD1FFF756FE012005B0D5
S1133FC0F0BD2000243001F089F90028F4D0FFF777
S1133FD033FEF1E7FFF730FEEEE7FFF745FE002082
S1133FE0EDE702A801F000FA013619E044230022AB
S1133FF0E25420E045230022E25421E02000FFF7B0
S1134000FCFE00F0D7FFFFF723FEA36BE26B9342A5
S1134010C8D3022DC6D0019B002BDED0002EE0D0E9
S1134020FFF722FE00F030FFFFF712FE4423E25CAC
S113403052B2531CDAD04523E25C52B2531CD9D09D
S1134040FFF712FE01A902A801F0D6F9002813D146
S11340502000FFF762FE0028D0D020001030019924
S113406001F0F4F82000FFF7C8FE00F0A3FF0028D9
S1134070C9D1FFF7E1FDC6E72000FFF7BEFE00F05F
S113408099FF00209BE710B5002807D00023436068
S11340900360C36000220021FFF761FF10BD10B56B
S11340A0020000210120FFF729FF0400FFF7EBFFC6
S11340B0200010BD70B5041E06D0456801F0C8FA92
S11340C0854203D0002070BD72B6FEE7E368013B71
S11340D0E360002B01D00120F5E70022002120003D
S11340E0FFF73DFF0120EEE7F0B5C64600B582B00C
S11340F004000F0001921D00002808D0002908D0F8
S1134100022D0BD1E36B012B08D072B6FEE772B619
S1134110FEE7036C002BF3D072B6FEE7FFF7B4FDA5
S11341200600A36BE26B93420AD3022D08D000244D
S11341303000FFF7ADFD200002B080BCB846F0BDF2
S11341404523E35C5BB298462A0039002000FFF760
S113415001FE4346013306D0434601335BB2452298
S1134160A3540124E4E7636A002B01D10124DFE7AF
S11341702000243001F0B2F8002806D0019A002A69
S113418005D0012313600124D2E70124D0E70124E0
S1134190CEE770B504000D00002804D0036C002B9A
S11341A003D072B6FEE772B6FEE70368002B13D0A5
S11341B0FFF76AFD0600A26BE36B934222D9452305
S11341C0E35C5BB20132A2635A1C0AD001335BB2D6
S11341D04522A354012416E04368002BE8D072B6AC
S11341E0FEE7636A002B01D101240CE02000243097
S11341F001F074F800280BD0002D0BD001232B60A4
S1134200012400E000243000FFF742FD200070BDCF
S11342100124F8E70124F6E7F0B585B004000F00A7
S1134220019200280AD000290AD001F017FA061ECC
S11342300BD1019B002B42D072B6FEE772B6FEE7AB
S1134240036C002BF1D072B6FEE7002637E039008C
S11342502000FFF7C0FD013DA5632369002B04D1B5
S1134260FFF702FD012005B0F0BD2000103001F081
S113427035F80028F4D0FFF7DFFCF1E7FFF7F4FC92
S11342800020F0E702A801F0AFF8013621E0442352
S11342900022E25428E045230022E25429E02000D1
S11342A0FFF7ABFD00F086FE09E02000FFF7A5FD57
S11342B000F080FE2000FFF73FFD002835D1FFF716
S11342C0C7FCA56B002DC2D1019B002BD6D0002EBC
S11342D0D8D0FFF7C9FC00F0D7FDFFF7B9FC4423A1
S11342E0E35C5BB20133D2D04523E35C5BB20133C0
S11342F0D1D0FFF7B9FC01A902A801F07DF800288C
S1134300D3D12000FFF718FD0028C8D020002430A6
S1134310019900F09BFF2000FFF76FFD00F04AFEBB
S11343200028CCD1FFF788FCC9E700209BE770B5D3
S113433084B0041E019104D0036C002B03D072B628
S1134340FEE772B6FEE701F089F9051E04D1019B70
S1134350002B04D072B6FEE70026002549E00600D3
S113436047E0013BA3632368002B08D02369002B9B
S113437009D1FFF779FC0126300004B070BD01F0CB
S113438051FA6060F2E72000103000F0A7FF002827
S1134390EFD0FFF751FCECE7002E01D072B6FEE738
S11343A0FFF762FCE8E702A801F01EF801352AE0F5
S11343B044230022E25431E045230022E25432E057
S11343C0FFF746FC606801F059F90600FFF74CFC62
S11343D039E02000FFF711FD00F0ECFD09E02000BA
S11343E0FFF70BFD00F0E6FD2000FFF7A5FC002819
S11343F038D1FFF72DFCA36B002BB2D1019B002B0E
S1134400CAD0002DCFD0FFF72FFC00F03DFDFFF701
S11344101FFC4423E35C5BB20133C9D04523E35C56
S11344205BB20133C8D0FFF71FFC01A902A800F05A
S1134430E3FF0028D3D12000FFF77EFC0028C8D07A
S11344402368002BBCD020002430019900F0FEFE2C
S11344502000FFF7D2FC00F0ADFD0028C9D1FFF722
S1134460EBFBC6E7002E01D1002685E7FFF7F0FB42
S11344702000FFF749FC0100606801F085F9FFF7AF
S1134480F3FBF1E770B504000D0000280ED0466878
S113449001F0DEF886420BD029002000FFF747FF29
S11344A0002809D0E3680133E36005E072B6FEE753
S11344B0E3680133E360012070BD70B584B004008B
S11344C00E00019200280AD000290AD001F0C6F893
S11344D0051E0BD1019B002B42D072B6FEE772B6CB
S11344E0FEE7036C002BF1D072B6FEE7002537E03F
S11344F0E56831002000FFF76EFCE560636A002B7D
S113450004D1FFF7B1FB012004B070BD20002430BA
S113451000F0E4FE0028F4D0FFF78EFBF1E7FFF78C
S1134520A3FB0020F0E702A800F05EFF013521E0C4
S113453044230022E25428E045230022E25429E0E7
S11345402000FFF75AFC00F035FD09E02000FFF7DA
S113455054FC00F02FFD2000FFF7EEFB002835D1BE
S1134560FFF776FBA36B002BC2D1019B002BD6D0A7
S1134570002DD8D0FFF778FB00F086FCFFF768FB2E
S11345804423E35C5BB20133D2D04523E35C5BB2EA
S11345900133D1D0FFF768FB01A902A800F02CFF7A
S11345A00028D3D12000FFF7C7FB0028C8D0200083
S11345B02430019900F04AFE2000FFF71EFC00F0B1
S11345C0F9FC0028CCD1FFF737FBC9E700209BE7B3
S11345D0F0B5CE4600B582B004000D00019200286B
S11345E010D0002910D0FFF74FFB0600A76B002F57
S11345F00FD100243000FFF74BFB200002B080BC39
S1134600B946F0BD72B6FEE7036C002BEBD072B670
S1134610FEE74423E35C5BB2994629002000FFF7E0
S1134620DAFB7B1EA3634B46013306D04B460133B2
S11346305BB24422A3540124DCE72369002B01D19B
S11346400124D7E72000103000F048FE002806D0EF
S1134650019A002A05D0012313600124CAE701242A
S1134660C8E70124C6E7F8B504000D00002806D009
S1134670002906D0236C002B08D172B6FEE772B66F
S1134680FEE7036C002BF5D072B6FEE7FFF7FCFAE9
S11346900600A36B002B05D100243000FFF7F8FAC5
S11346A02000F8BDE76829002000FFF794FBE760CD
S11346B00124F2E710B5041E06D0FFF7C9FAA46B73
S11346C0FFF7D2FA200010BD72B6FEE710B5041E43
S11346D008D0FFF7BDFAE36BA46B1C1BFFF7C4FA09
S11346E0200010BD72B6FEE7002801D0806B704731
S11346F072B6FEE7806C7047816470474C23C05CDF
S11347007047002804D0836B002B03D1012070472D
S113471072B6FEE70020FAE7002805D0826BC36B6F
S11347209A4203D00020704772B6FEE70120FAE7F0
S113473010B50023072B0AD8DA00054C1259002AB9
S113474001D00133F6E7DB001951E318586010BDBE
S1134750FC0800200023072B0AD8D900054A521868
S11347605268824201D00133F5E7024A885800E0DA
S113477000207047FC0800200023072B0DD8D90027
S1134780064A52185268824201D00133F5E7034ABF
S11347900B0000219950D31859607047FC08002081
S11347A010B5041E05D0FFF7E7FF2000FFF75AF904
S11347B010BD72B6FEE770B504000D001600FFF7D9
S11347C047FA4423E35C5BB201330DD04523E35C39
S11347D05BB201330CD0FFF747FAA36B002B0BD06D
S11347E02000FFF70AFB70BD44230022E254EDE7EA
S11347F045230022E254EEE7200024303200290051
S113480000F054FDECE7C046002805D0094B42698E
S11348109A4203D00020704772B6FEE7826A1433CE
S11348209A4203D0002A03D00020F4E70020F2E7E4
S11348300120F0E73C090020002301E001300133AE
S11348400278A52AFAD0980880B27047084B9B6A70
S11348501B68002B04D1064B01225242DA627047D6
S1134860034B9A6AD268D2685268DA62F7E7C046A4
S11348703C09002010B50400006BFFF7F3F820009A
S1134880FFF7F0F810BDF8B5DE46574680B582460E
S11348900E0014009B460A9D9200A521286B01F08E
S11348A0C3FD274B9C466444A4002B6B9C46644484
S11348B007239C432700AC640024132C08D8325DE2
S11348C02B1934331A70335D002B01D00134F4E713
S11348D047230022EA54089B042B01D9042308939C
S11348E0089BEB626B650023AB65281DFFF7EBF8B3
S11348F028001830FFF7E7F82D610523089A9E1A5F
S1134900AE616D62002206E0130016339B00EB18C3
S1134910002159600132042AF6D900232B6774223E
S1134920AB545A4651463800FFF74CF92860099BAE
S1134930002B00D01D60C0BCBB46B246F8BDC046CB
S1134940FFFFFF3FF8B5002408E01248A3001B193D
S11349509A0030308018FFF7ABF80134042CF4D9F6
S11349600D4C270014373800FFF7A2F8260028362C
S11349703000FFF79DF8074D28001430FFF798F832
S113498020003C30FFF794F82800FFF791F8AF625D
S11349902665F8BD3C090020BC09002010B50400C0
S11349A0FFF756F91F4B5A6D01325A659B6D002B68
S11349B00CD01C4BDB6D002B0DD11A4B9B6DDB6AAD
S11349C0E26A934207D8174B9C6504E0154B9C653B
S11349D05B6D012B1FD013490B6E01330B66E3642F
S11349E0E26A4B6E9A4200D94A66211D0E4B900032
S11349F08218920030339818FFF768F8FFF734F9FB
S1134A00084BDB6D002B05D0064B9B6DDA6AE36A1D
S1134A109A4203D310BDFFF795FFDCE7FFF70CF9CB
S1134A20F8E7C046BC0900203C09002070B512E03C
S1134A30FFF70EF90A4CA36CDD68281DFFF768F830
S1134A40636D013B6365A36E013BA366FFF70CF93D
S1134A502800FFF70FFF024B9B6E002BE8D170BDBF
S1134A60BC09002010B5FFF7E1FF034B1B6B012BC2
S1134A70F9D9FFF7E1F8F6E73C09002070B5040026
S1134A800D00154BDE6E986D0430FFF741F8631C82
S1134A900CD03419104B9B6D5C60A6420FD90E4BA1
S1134AA0186D996D0431FFF71CF870BD002DF0D01E
S1134AB0094B996D04310948FFF708F8F5E7074DEC
S1134AC0A86A054B996D0431FFF70BF8EB6AA34212
S1134AD0EBD9024BDC62E8E7BC0900203C0900206A
S1134AE0F0B587B00490059116001F009000FEF702
S1134AF069FF041E1DD07820FEF764FF051E14D044
S1134B000463002D19D00023039302950D9B019398
S1134B100C9B00933B00320005990498FFF7B3FE09
S1134B202800FFF73BFF012005E02000FEF79AFF75
S1134B30E7E70120404207B0F0BD01204042FAE718
S1134B4070B50400FFF784F8002C25D0251D28003B
S1134B50FEF7DEFFA36A002B03D020001830FEF717
S1134B60D7FF184B1A6E01321A669B6DA34216D0FA
S1134B70144A536D013B53652000FFF77BFEFFF79A
S1134B8065FEFFF771F80F4BDB6D002B03D00D4B67
S1134B909B6DA3420DD070BD0A4B9C6DD6E7094EA8
S1134BA030003C302900FEF791FFB36E0133B36649
S1134BB0E7E7044B1B6F002B01D072B6FEE7FFF74B
S1134BC03BF8E8E7BC09002070B5041E1BD0174B66
S1134BD09B6D834222D0FFF73BF86569FFF744F8E9
S1134BE0134B9B6AAB421BD0104B1B6DAB4219D0CD
S1134BF00F4B9D4209D00D4B3C339D4214D0002DE8
S1134C000AD001200BE072B6FEE7A36A002B01D0A4
S1134C10022004E0032002E0042000E0002070BD34
S1134C200220FCE70220FAE70420F8E7BC09002090
S1134C303C09002010B50400FFF70AF8002C04D04A
S1134C40E46AFFF711F8200010BD014B9C6DF7E7F3
S1134C50BC09002010B50400FFF716F8002C04D09E
S1134C60E46AFFF715F8200010BD014B9C6DF7E7CF
S1134C70BC09002070B504000D00042901D972B6E6
S1134C80FEE7FEF7E5FF002C0ED0636D9D4228D0B1
S1134C900DD9254A926DA24226D0234A926DD26A3A
S1134CA0AA4223D9002607E01F4B9C6DEDE71E4A5C
S1134CB0926DA2421CD00026E16A8B421AD065652F
S1134CC0A369002B02DB05235D1BA561174B8A003A
S1134CD05218920030339B1862699A420CD0002E0D
S1134CE01FD1FEF7C1FF70BD0026E5E70126E3E70B
S1134CF00126E1E7E562E2E7251D2800FEF708FF4B
S1134D00E26A094B5B6E9A4201D9074B5A6607481F
S1134D1093009B189B003030C0182900FEF7D6FE84
S1134D20DDE7FEF789FFDCE7BC0900203C09002031
S1134D3070B5041E0DD0164B9B6D834208D0FEF750
S1134D4087FF2000FFF760FD002804D1FEF78CFFE9
S1134D5070BD72B6FEE7251D2800FEF7D9FEE26A93
S1134D600B4B5B6E9A4201D9094B5A660948930072
S1134D709B189B003030C0182900FEF7A7FEE26A9A
S1134D80034B9B6DDB6A9A42E0D3FEF755FFDDE7E8
S1134D90BC0900203C090020F8B5041E2BD0FEF706
S1134DA073FF06002000FFF72FFD051E1ED0184BD1
S1134DB01B6F002B23D1164B9B6DDB6AE26A9A4270
S1134DC01BD20025271D3800FEF7A2FEE26A104B15
S1134DD05B6E9A4201D90E4B5A660E4893009B189B
S1134DE09B003030C0183900FEF770FE3000FEF72B
S1134DF04FFF2800F8BD72B6FEE70125E2E7210067
S1134E00183104481430FEF761FE0025EEE7C04671
S1134E10BC0900203C09002000B583B0114B743359
S1134E200193002300935A220F491048FFF758FEBC
S1134E30012805D0012806D0431C11D003B000BDC1
S1134E4000F02BFFF6E772B6094B01225242DA62F8
S1134E50044B0232DA650022DA66FEF7C4FEEDE79F
S1134E6072B6FEE7BC090020F4710000654A000038
S1134E703C09002010B572B6024B0022DA65FEF739
S1134E80CFFE10BDBC090020024A136F0133136723
S1134E907047C046BC090020014BD86E7047C0461D
S1134EA0BC090020014BD86E7047C046BC090020E5
S1134EB0014B586D7047C046BC090020002803D040
S1134EC0002804D034307047024B986DF8E772B66E
S1134ED0FEE7C046BC090020F8B5334B1B6F002B1E
S1134EE056D1314BDD6E0135DD66002D11D12F4BCE
S1134EF09B6A1B68002B01D072B6FEE72B4A916AAD
S1134F00294B186D906219659A6F01329A67FFF701
S1134F109DFC264BDB6AAB4230D900273DE00127DC
S1134F20224B9B6A1B68002B2AD0204B9B6ADB68B0
S1134F30DC6863689D4228D3261D3000FEF7E8FD37
S1134F40A36A002B03D020001830FEF7E1FDE26ACB
S1134F50154B5B6E9A4201D9134B5A661348930062
S1134F609B189A00303080183100FEF7AFFDE26ADA
S1134F700D4B9B6DDB6A9A42D1D2D1E70027CFE774
S1134F800A4B01225242DA6207E0084AD36204E083
S1134F90054AD36F0133D3670027054B1B68002BE9
S1134FA000D001273800F8BDBC0900203C090020CE
S1134FB03C0A002070B5314B1B6F002B01D172B637
S1134FC0FEE7FEF745FE2D4B1A6F013A1A671B6F79
S1134FD0002B4ED1294B5B6D002B01D1002449E0FD
S1134FE00024274B5B69002B24D0254B1B6ADC680B
S1134FF020001830FEF78CFD251D2800FEF788FDE3
S1135000E26A1E4B5B6E9A4201D91C4B5A661C4BDA
S1135010900082189200303398182900FEF756FD4C
S1135020164B9B6DDB6AE26A9A42DAD3154B012276
S11350301A60D6E7002C01D0FFF708FC0F4BDC6F99
S1135040002C0AD10F4B1C68002C13D0FEF7F4FD82
S113505001240FE0013C002C07D0FFF73DFF00289E
S1135060F8D0084B01221A60F4E7044B0022DA67F7
S1135070E8E70024FEF7F8FD200070BDBC0900201D
S11350803C0900203C0A002070B505000C000028F3
S113509003D0002903D172B6FEE772B6FEE7154BC2
S11350A01B6F002B01D072B6FEE7FFF7EDFE114B2C
S11350B0D86E2B681C19834209D9A34201D82C60ED
S11350C00EE0A04201D32C600AE02C6004E0A3426D
S11350D001D8A04209D22C60201A0021FFF7CEFC8F
S11350E0FFF768FF002802D070BD2C60F8E7FEF7D8
S11350F0A3FDF9E7BC09002010B5041E0FD0094B2D
S11351001B6F002B01D072B6FEE7FFF7BDFE002136
S11351102000FFF7B3FCFFF74DFF002801D1FEF795
S11351208BFD10BDBC09002010B51D4B1B6F002B5F
S113513003D01C4B01221A6010BD1A4B00221A60C6
S1135140174B5B6E9A00D2189100174A5218126BD3
S1135150002A05D1002B01D0013BF3E772B6FEE72C
S1135160114A9900CC18A0001018446B6468446379
S11351703032C91888000830121894420AD09A00B4
S1135180D2189100084A5218526BD168044A9165AA
S11351905366D1E760688900034A52185063EEE70A
S11351A0BC0900203C0A00203C09002070B5040022
S11351B0FEF74EFD002C1DD0251D2800FEF7A8FC8F
S11351C0A36A002B03D020001830FEF7A1FC2900AD
S11351D01C48FEF77BFC7423E35C012B0DD0FEF727
S11351E043FD194BDB6D002B0BD1174B9B6DA34279
S11351F00ED070BD144B9C6DDEE773330022E25475
S1135200EDE7FEF725FDFFF721FBFEF72DFDECE7AB
S11352100D4BDB6D002B08D00B4B1B6F002B01D00B
S113522072B6FEE7FEF708FDE3E7064B1A68064B85
S11352305B6D9A4203D1044B00229A65D9E7FFF7CC
S113524073FFD6E73C090020BC09002010B50C0010
S1135250002809D0054B996D1831FEF742FC012155
S11352602000FFF70BFC10BD72B6FEE7BC0900205E
S113527070B51400002805D00B4B1B6F002B03D115
S113528072B6FEE772B6FEE7074A956D80231B06E9
S11352901943A961916D1831FEF718FC0121200012
S11352A0FFF7ECFB70BDC046BC09002070B50D00D3
S11352B0140000280DD0084B996D1831FEF706FC38
S11352C0002C01D001256D4221002800FFF7D6FBF8
S11352D070BD72B6FEE7C046BC09002070B5C36855
S11352E0DC68002C27D0250018352800FEF710FCB8
S11352F0164B1B6F002B20D1251D2800FEF708FC40
S1135300E26A124B5B6E9A4201D9104B5A661048FE
S113531093009B189B003030C0182900FEF7D6FB81
S1135320E26A0A4B9B6DDB6A9A420CD9094B012253
S11353301A60012070BD72B6FEE7054829001430DA
S1135340FEF7C4FBECE70020F4E7C046BC090020EC
S11353503C0900203C0A002070B5174B1B6F002B42
S113536001D172B6FEE780231B0619430160C468AD
S1135370002C1FD0FEF7CCFB251D2800FEF7C8FB30
S1135380E26A0D4B5B6E9A4201D90B4B5A660B488D
S113539093009B189B003030C0182900FEF796FB41
S11353A0E26A054B9B6DDB6A9A4202D9044B0122E7
S11353B01A6070BD72B6FEE7BC0900203C090020EB
S11353C03C0A002010B5041E09D0FEF741FC054B31
S11353D09A6F2260DB6E6360FEF746FC10BD72B606
S11353E0FEE7C046BC090020024B9A6F0260DB6EE8
S11353F043607047BC090020F8B504000D00002884
S113540017D0002917D0FEF723FC134BD96E63681D
S1135410C81A2A68561C18D00F4EB66F2768B742B0
S113542001D08B4216D9824207D800232B60012475
S11354300CE072B6FEE772B6FEE75B1A9B182B60AF
S11354402000FFF7D1FF002400E00024FEF70CFC4D
S11354502000F8BD0124F9E7BC090020014B01221A
S11354601A6070473C0A0020002801D0006D704784
S11354700020FCE7002800D001657047042905DC02
S1135480002804D01631890041184A607047014B46
S1135490986DF7E7BC090020042909DC002804D032
S11354A016318900411848687047024B986DF7E738
S11354B00020F9E7BC09002070B505000C001600B7
S11354C000281BD025602A0034326260EA6A226117
S11354D02A6BE261EA6CA2606A6D62610022A261D9
S11354E0052B1BD0124A926DAA420AD02373032BB8
S11354F00AD0002E17D10023238470BD0C4A956D69
S1135500E0E700232373F4E7FFF7BEFCAB6A002B4C
S113551001D002232373FFF74DFDEAE72800FFF7CC
S113552053FB2073E5E7286BFFF786F92084E4E753
S1135530BC090020F0B5D6464F464646C0B5070024
S11355400D0090460C68002C25D04B685B684B60BE
S11355500822914689444B4504D06B68DB689A461F
S1135560002410E05B684B60F7E76B68DE68E100DD
S1135570091989007918434601223000FFF79CFF7E
S11355800134B24507D06B685B686B609945ECD118
S11355905B686B60E9E72000E0BCBA46B146A84608
S11355A0F0BDF0B5C64600B506000C001700FFF7C5
S11355B06BFC254B5B6DA3423FD805240025013CC1
S11355C0E80040198000214BA10009198A003033FA
S11355D0991830180122FFF7ADFF2D18002CEED1D9
S11355E0E80040198000194CA16A30180222FFF724
S11355F0A1FF2D18E80040198000134B9846196D3F
S113560030180222FFF796FF2D18E8004019800099
S113561041463C3130180422FFF78CFF2D18E80076
S113562040198000301803222100FFF783FF2D1852
S1135630002F03D000233B6000E00025FFF7BAFCF5
S1135640280080BCB846F0BDBC0900203C090020FD
S1135650014B986D7047C046BC090020064BDB6DBA
S1135660002B07D0044B1B6F002B01D0002002E05D
S1135670022000E001207047BC09002070B5041E20
S11356803FD0C16A214B9B6DDB6A994231D2836959
S1135690002B05DB1D4B9B6DDA6A05239B1A836186
S11356A01B4A8B0059188900130030335B18626958
S11356B09A4205D0154B9B6DDB6AE362012021E021
S11356C0251D2800FEF724FA104B9A6DD26AE26277
S11356D05B6E9A420AD80E4B9000821892003033C7
S11356E098182900FEF7F2F901200BE0074B5A66DF
S11356F0F1E7426D054B9B6DDB6A9A4203D30020B0
S113570000E0002070BD0120FCE7C046BC09002079
S11357103C09002070B5041E2ED0194B9B6D8342AA
S113572001D072B6FEE7836D002B01D172B6FEE79D
S1135730013B8365C26A416D8A421FD0002B01D0B0
S113574000201AE0051D2800FEF7E2F9636DE3620C
S11357500522D21AA2610A4A526E934201D9084A1A
S1135760536608489A00D3189B003030C0182900AB
S1135770FEF7ACF9012000E0002070BD0020FCE73A
S1135780BC0900203C09002070B5041E0DD0836DB7
S1135790002B01D172B6FEE7426D8A4200D20A00A4
S11357A0E16A914201D0012B00D070BD154B9B6D75
S11357B0A34224D0E262A369002B02DB05239A1AD8
S11357C0A261114B8A005118890030335B18626959
S11357D09A42EAD1251D2800FEF79AF9E26A094B9C
S11357E05B6E9A4201D9074B5A66074893009B188F
S11357F09B003030C0182900FEF768F9D5E772B66F
S1135800FEE7C046BC0900203C090020044A936D11
S11358109869936DD96A926D05235B1A93617047F9
S1135820BC090020054B9B6D002B04D0034B9A6DE3
S1135830936D01339365014B986D7047BC0900204B
S113584070B505000C00FEF703FA174B9B6D1B6F38
S1135850002B06D1144B9A6D74230121D154002CD2
S113586017D1FEF701FAFEF7F3F90F4B9B6D1C6F8E
S1135870002C05D0002D12D00B4B9B6D00221A6713
S1135880094B9A6D74230021D154FEF7EDF92000E1
S113589070BD2000FFF7F2F8FEF7CEF9E1E7024B06
S11358A09B6D621E1A67EBE7BC090020F8B5060081
S11358B00F0014001D00FEF7CBF91C4B9A6D7423E6
S11358C0D35C022B0AD0194A916D0B6FB3430B675B
S11358D0926D74230121D154002D19D1FEF7C4F91E
S11358E0FEF7B6F9002C03D0104B9B6D1B6F2360A1
S11358F00E4B9A6D7423D35C022B0FD000240B4BF8
S11359009A6D74230021D154FEF7AEF92000F8BD3E
S11359102800FFF7B3F8FEF78FF9DFE7034B9A6D22
S1135920136FBB4313670124E9E7C046BC09002099
S1135930F8B504000E0015001F00002816D0FEF76D
S113594087F9002F01D0236F3B607422A35CDBB284
S11359500221A154032D20D00CD8012D18D0022DE2
S113596006D1226F0132226701250BE072B6FEE7F1
S1135970012507E0042D04D1022B11D0266701254F
S113598000E00125012B0DD0FEF76EF92800F8BDCB
S1135990226F164326670125F4E726670125F1E700
S11359A00025EFE7261D3000FEF7B2F8E26A0E4B41
S11359B05B6E9A4201D90C4B5A660C4893009B18B3
S11359C09B003030C0183100FEF780F8A36A002B2A
S11359D001D072B6FEE7E26A034B9B6DDB6A9A4222
S11359E0D2D9FEF729F9CFE7BC0900203C090020F1
S11359F0F0B583B004000E0015001F00002817D076
S1135A00FEF742F90190002F01D0236F3B6074220E
S1135A10A35CDBB20221A154032D21D00CD8012DAB
S1135A2019D0022D06D1226F0132226701250BE025
S1135A3072B6FEE7012507E0042D04D1022B12D033
S1135A402667012500E00125012B32D1A36A002B32
S1135A500BD072B6FEE7226F164326670125F3E7E3
S1135A6026670125F0E70025EEE71A4B1B6F002B94
S1135A7025D1261D3000FEF74BF8E26A154B5B6E0C
S1135A809A4201D9134B5A66134893009B189B0002
S1135A903030C0183100FEF719F8E26A0D4B9B6DE7
S1135AA0DB6A9A4205D9089B002B0FD00123089A80
S1135AB013600198FEF7ECF8280003B0F0BD210054
S1135AC0183105481430FEF701F8E6E7034B0122CC
S1135AD01A60EEE7BC0900203C0900203C0A0020C3
S1135AE0F8B504000D00002810D0FEF7CDF806002C
S1135AF07423E25C0221E154236F01332367012AFA
S1135B0028D1A36A002B03D072B6FEE772B6FEE773
S1135B10184B1B6F002B21D1271D3800FDF7F8FF10
S1135B20E26A144B5B6E9A4201D9124B5A661248D0
S1135B3093009B189B003030C0183900FDF7C6FF56
S1135B40E26A0C4B9B6DDB6A9A4203D9002D0CD0A0
S1135B5001232B603000FEF79BF8F8BD21001831BB
S1135B6005481430FDF7B2FFEAE7044B01221A603E
S1135B70F0E7C046BC0900203C0900203C0A002094
S1135B8010B5041E0AD0FEF763F87423E35C022BFD
S1135B9007D00024FEF768F8200010BD034B9C6D6D
S1135BA0F1E772330022E2540124F3E7BC09002038
S1135BB0064B1A68136859424B410360002B02D10B
S1135BC0D368186870470020FCE7C046400A0020EC
S1135BD010B54160006191420CD8D21A83699A428F
S1135BE001D3012010BD011D094B5868FDF779FF51
S1135BF00020F7E79A4201D2994206D2011D044BD4
S1135C001868FDF76EFF0020ECE70120EAE7C046C4
S1135C10400A002070B5FEF71BF8104B9B68002B60
S1135C2002D0FEF721F870BD0C4C26000C36300073
S1135C30FDF73EFF250020352800FDF739FF2660DB
S1135C406560002210210A20FEF758F9A0600028A0
S1135C50E7D00349FEF76CFDE3E7C046400A0020A5
S1135C60FC710000F0B583B007000D00160001932D
S1135C70099C002901D172B6FEE7002C0BD0FFF776
S1135C80C9FF2760A561E661019B2362089B6362EB
S1135C90201DFDF718FF03B0F0BD00B583B0FFF77A
S1135CA0B9FF0A4B9B68002B0CD0084B343301938B
S1135CB0042300930023B42205490648FEF710FF8D
S1135CC0002801D172B6FEE703B000BD400A0020EF
S1135CD004720000715F0000F0B585B003900D0000
S1135CE016001F002C20FDF76DFE041E08D0019045
S1135CF00A9B00933B00320029000398FFF7B2FF90
S1135D00200005B0F0BD30B585B01C00002814D0CB
S1135D10144B9D68002D22D0009101920290052918
S1135D2015DCFFF79BFC022809D00E4B9868002372
S1135D3000226946FEF713F90FE072B6FEE7094B3D
S1135D4098680023089A6946FEF709F905E00023DC
S1135D50220069462800FEF7C7F905B030BD0020CF
S1135D60FBE7C046400A002070B582B0174B1B68A1
S1135D701A68002A23D0DB681E68DC68251D280009
S1135D80FDF7C6FE2000636A9847E369012BEDD155
S1135D90A3699B199E4207D2636024610B4B186868
S1135DA02900FDF79EFEE1E7002300933200002165
S1135DB02000FFF7A8FF0028D8D172B6FEE7034AF7
S1135DC051681160536002B070BDC046400A0020A3
S1135DD070B50500FFF760F80400074B9B6B834226
S1135DE005D800232B60044B9C63200070BDFFF793
S1135DF0BBFF01232B60F6E7400A002070B582B098
S1135E0005000E00114B1B68DB68DC68201DFDF7E4
S1135E107FFEE369012B04D0636A2000984702B037
S1135E2070BDA36959192B0032002000FFF7D0FE82
S1135E300028F1D0002300932A0000212000FFF75E
S1135E4062FF0028E8D172B6FEE7C046400A00208F
S1135E5070B582B005000C00FFF716F801A8FFF733
S1135E60B7FF0600019B002B21D1002C01D1A842D1
S1135E7013D2002C05D00F4B5B681C6863425C4155
S1135E80E4B2A91B0B4B98682200FEF794FCFFF7C1
S1135E9091F8002808D002B070BDFFF78BF83100EC
S1135EA02800FFF7ABFFF6E7FDF7C6FEF3E7FFF7C1
S1135EB081F8F0E7400A002010B588B002E0049BA6
S1135EC0002B0FDA284B9868002204A9FEF7A4F9E6
S1135ED0002847D0049B002BF1DA059B079906980C
S1135EE09847ECE7069C6369002B02D0201DFDF760
S1135EF00FFE03A8FFF76CFF020004990929E1D8FB
S1135F0089001A4B5B589F460599A3699C466144D6
S1135F10059B2000FFF75CFE0028D3D02000636AB5
S1135F209847E369012BCDD1059AA3699C46624445
S1135F300023009300212000FFF7E5FE0028C1D1D3
S1135F4072B6FEE70599A161002905D0091803007E
S1135F502000FFF73DFEB5E772B6FEE72000FDF72F
S1135F6081FDAFE708B010BD400A00200C720000AC
S1135F7000B583B001A8FFF71BFE0199FFF768FF86
S1135F80FFF79AFFF6E7034B586B002800D07047E1
S1135F9072B6FEE7400A0020002801D080697047ED
S1135FA072B6FEE7002801D04068704772B6FEE77B
S1135FB0002801D00068704772B6FEE710B5041ED1
S1135FC009D0FDF745FE6469631E9C41E4B2FDF708
S1135FD04BFE200010BD72B6FEE710B5041E06D0BD
S1135FE0FDF736FE246AFDF73FFE200010BD72B6B1
S1135FF0FEE770B504000D00002805D0FDF728FE6B
S11360002562FDF731FE70BD72B6FEE710B584B0AF
S113601014001A0002235B4200930190029103943E
S1136020034B986800236946FEF75EF804B010BD80
